{
  "address": "0x5FC8d32690cc91D4c39d9d3abcBD16989F875707",
  "abi": [
    {
      "inputs": [
        {
          "internalType": "address",
          "name": "_stakingContractAddress",
          "type": "address"
        },
        {
          "internalType": "uint256",
          "name": "_totalSupply",
          "type": "uint256"
        },
        {
          "internalType": "uint256",
          "name": "_airdropReward",
          "type": "uint256"
        }
      ],
      "stateMutability": "nonpayable",
      "type": "constructor"
    },
    {
      "anonymous": false,
      "inputs": [
        {
          "indexed": true,
          "internalType": "address",
          "name": "owner",
          "type": "address"
        },
        {
          "indexed": true,
          "internalType": "address",
          "name": "spender",
          "type": "address"
        },
        {
          "indexed": false,
          "internalType": "uint256",
          "name": "value",
          "type": "uint256"
        }
      ],
      "name": "Approval",
      "type": "event"
    },
    {
      "anonymous": false,
      "inputs": [
        {
          "indexed": true,
          "internalType": "address",
          "name": "previousOwner",
          "type": "address"
        },
        {
          "indexed": true,
          "internalType": "address",
          "name": "newOwner",
          "type": "address"
        }
      ],
      "name": "OwnershipTransferred",
      "type": "event"
    },
    {
      "anonymous": false,
      "inputs": [
        {
          "indexed": true,
          "internalType": "address",
          "name": "from",
          "type": "address"
        },
        {
          "indexed": true,
          "internalType": "address",
          "name": "to",
          "type": "address"
        },
        {
          "indexed": false,
          "internalType": "uint256",
          "name": "value",
          "type": "uint256"
        }
      ],
      "name": "Transfer",
      "type": "event"
    },
    {
      "inputs": [],
      "name": "airdropReward",
      "outputs": [
        {
          "internalType": "uint256",
          "name": "",
          "type": "uint256"
        }
      ],
      "stateMutability": "view",
      "type": "function"
    },
    {
      "inputs": [
        {
          "internalType": "address",
          "name": "owner",
          "type": "address"
        },
        {
          "internalType": "address",
          "name": "spender",
          "type": "address"
        }
      ],
      "name": "allowance",
      "outputs": [
        {
          "internalType": "uint256",
          "name": "",
          "type": "uint256"
        }
      ],
      "stateMutability": "view",
      "type": "function"
    },
    {
      "inputs": [
        {
          "internalType": "address",
          "name": "spender",
          "type": "address"
        },
        {
          "internalType": "uint256",
          "name": "amount",
          "type": "uint256"
        }
      ],
      "name": "approve",
      "outputs": [
        {
          "internalType": "bool",
          "name": "",
          "type": "bool"
        }
      ],
      "stateMutability": "nonpayable",
      "type": "function"
    },
    {
      "inputs": [
        {
          "internalType": "address",
          "name": "account",
          "type": "address"
        }
      ],
      "name": "balanceOf",
      "outputs": [
        {
          "internalType": "uint256",
          "name": "",
          "type": "uint256"
        }
      ],
      "stateMutability": "view",
      "type": "function"
    },
    {
      "inputs": [
        {
          "internalType": "address",
          "name": "_user",
          "type": "address"
        }
      ],
      "name": "claimReward",
      "outputs": [],
      "stateMutability": "nonpayable",
      "type": "function"
    },
    {
      "inputs": [
        {
          "internalType": "address",
          "name": "",
          "type": "address"
        }
      ],
      "name": "claimed",
      "outputs": [
        {
          "internalType": "bool",
          "name": "",
          "type": "bool"
        }
      ],
      "stateMutability": "view",
      "type": "function"
    },
    {
      "inputs": [],
      "name": "decimals",
      "outputs": [
        {
          "internalType": "uint8",
          "name": "",
          "type": "uint8"
        }
      ],
      "stateMutability": "view",
      "type": "function"
    },
    {
      "inputs": [
        {
          "internalType": "address",
          "name": "spender",
          "type": "address"
        },
        {
          "internalType": "uint256",
          "name": "subtractedValue",
          "type": "uint256"
        }
      ],
      "name": "decreaseAllowance",
      "outputs": [
        {
          "internalType": "bool",
          "name": "",
          "type": "bool"
        }
      ],
      "stateMutability": "nonpayable",
      "type": "function"
    },
    {
      "inputs": [
        {
          "internalType": "address",
          "name": "user",
          "type": "address"
        }
      ],
      "name": "getReward",
      "outputs": [],
      "stateMutability": "nonpayable",
      "type": "function"
    },
    {
      "inputs": [
        {
          "internalType": "address",
          "name": "spender",
          "type": "address"
        },
        {
          "internalType": "uint256",
          "name": "addedValue",
          "type": "uint256"
        }
      ],
      "name": "increaseAllowance",
      "outputs": [
        {
          "internalType": "bool",
          "name": "",
          "type": "bool"
        }
      ],
      "stateMutability": "nonpayable",
      "type": "function"
    },
    {
      "inputs": [],
      "name": "name",
      "outputs": [
        {
          "internalType": "string",
          "name": "",
          "type": "string"
        }
      ],
      "stateMutability": "view",
      "type": "function"
    },
    {
      "inputs": [],
      "name": "owner",
      "outputs": [
        {
          "internalType": "address",
          "name": "",
          "type": "address"
        }
      ],
      "stateMutability": "view",
      "type": "function"
    },
    {
      "inputs": [],
      "name": "renounceOwnership",
      "outputs": [],
      "stateMutability": "nonpayable",
      "type": "function"
    },
    {
      "inputs": [],
      "name": "stakingContractAddress",
      "outputs": [
        {
          "internalType": "address",
          "name": "",
          "type": "address"
        }
      ],
      "stateMutability": "view",
      "type": "function"
    },
    {
      "inputs": [],
      "name": "symbol",
      "outputs": [
        {
          "internalType": "string",
          "name": "",
          "type": "string"
        }
      ],
      "stateMutability": "view",
      "type": "function"
    },
    {
      "inputs": [],
      "name": "totalSupply",
      "outputs": [
        {
          "internalType": "uint256",
          "name": "",
          "type": "uint256"
        }
      ],
      "stateMutability": "view",
      "type": "function"
    },
    {
      "inputs": [
        {
          "internalType": "address",
          "name": "to",
          "type": "address"
        },
        {
          "internalType": "uint256",
          "name": "amount",
          "type": "uint256"
        }
      ],
      "name": "transfer",
      "outputs": [
        {
          "internalType": "bool",
          "name": "",
          "type": "bool"
        }
      ],
      "stateMutability": "nonpayable",
      "type": "function"
    },
    {
      "inputs": [
        {
          "internalType": "address",
          "name": "from",
          "type": "address"
        },
        {
          "internalType": "address",
          "name": "to",
          "type": "address"
        },
        {
          "internalType": "uint256",
          "name": "amount",
          "type": "uint256"
        }
      ],
      "name": "transferFrom",
      "outputs": [
        {
          "internalType": "bool",
          "name": "",
          "type": "bool"
        }
      ],
      "stateMutability": "nonpayable",
      "type": "function"
    },
    {
      "inputs": [
        {
          "internalType": "address",
          "name": "newOwner",
          "type": "address"
        }
      ],
      "name": "transferOwnership",
      "outputs": [],
      "stateMutability": "nonpayable",
      "type": "function"
    }
  ],
  "transactionHash": "0xa761eb8d29d7a9fda3a809106653d34daf8f41fa47df23e602425ed447f3fb1a",
  "args": [
    "0xDc64a140Aa3E981100a9becA4E685f962f0cF6C9",
    1000000,
    100
  ],
  "numDeployments": 1,
  "solcInputHash": "161bc21b0b7126f43bbc027b10390339",
  "bytecode": "0x60806040523480156200001157600080fd5b50604051620026df380380620026df833981810160405281019062000037919062000436565b6040518060400160405280601281526020017f41697264726f70526577617264546f6b656e00000000000000000000000000008152506040518060400160405280600381526020017f4d544b00000000000000000000000000000000000000000000000000000000008152508160039081620000b4919062000702565b508060049081620000c6919062000702565b505050620000e9620000dd6200014c60201b60201c565b6200015460201b60201c565b82600660006101000a81548173ffffffffffffffffffffffffffffffffffffffff021916908373ffffffffffffffffffffffffffffffffffffffff160217905550806007819055506200014333836200021a60201b60201c565b50505062000904565b600033905090565b6000600560009054906101000a900473ffffffffffffffffffffffffffffffffffffffff16905081600560006101000a81548173ffffffffffffffffffffffffffffffffffffffff021916908373ffffffffffffffffffffffffffffffffffffffff1602179055508173ffffffffffffffffffffffffffffffffffffffff168173ffffffffffffffffffffffffffffffffffffffff167f8be0079c531659141344cd1fd0a4f28419497f9722a3daafe3b4186f6b6457e060405160405180910390a35050565b600073ffffffffffffffffffffffffffffffffffffffff168273ffffffffffffffffffffffffffffffffffffffff16036200028c576040517f08c379a000000000000000000000000000000000000000000000000000000000815260040162000283906200084a565b60405180910390fd5b620002a0600083836200038760201b60201c565b8060026000828254620002b491906200089b565b92505081905550806000808473ffffffffffffffffffffffffffffffffffffffff1673ffffffffffffffffffffffffffffffffffffffff168152602001908152602001600020600082825401925050819055508173ffffffffffffffffffffffffffffffffffffffff16600073ffffffffffffffffffffffffffffffffffffffff167fddf252ad1be2c89b69c2b068fc378daa952ba7f163c4a11628f55a4df523b3ef83604051620003679190620008e7565b60405180910390a362000383600083836200038c60201b60201c565b5050565b505050565b505050565b600080fd5b600073ffffffffffffffffffffffffffffffffffffffff82169050919050565b6000620003c38262000396565b9050919050565b620003d581620003b6565b8114620003e157600080fd5b50565b600081519050620003f581620003ca565b92915050565b6000819050919050565b6200041081620003fb565b81146200041c57600080fd5b50565b600081519050620004308162000405565b92915050565b60008060006060848603121562000452576200045162000391565b5b60006200046286828701620003e4565b935050602062000475868287016200041f565b925050604062000488868287016200041f565b9150509250925092565b600081519050919050565b7f4e487b7100000000000000000000000000000000000000000000000000000000600052604160045260246000fd5b7f4e487b7100000000000000000000000000000000000000000000000000000000600052602260045260246000fd5b600060028204905060018216806200051457607f821691505b6020821081036200052a5762000529620004cc565b5b50919050565b60008190508160005260206000209050919050565b60006020601f8301049050919050565b600082821b905092915050565b600060088302620005947fffffffffffffffffffffffffffffffffffffffffffffffffffffffffffffffff8262000555565b620005a0868362000555565b95508019841693508086168417925050509392505050565b6000819050919050565b6000620005e3620005dd620005d784620003fb565b620005b8565b620003fb565b9050919050565b6000819050919050565b620005ff83620005c2565b620006176200060e82620005ea565b84845462000562565b825550505050565b600090565b6200062e6200061f565b6200063b818484620005f4565b505050565b5b8181101562000663576200065760008262000624565b60018101905062000641565b5050565b601f821115620006b2576200067c8162000530565b620006878462000545565b8101602085101562000697578190505b620006af620006a68562000545565b83018262000640565b50505b505050565b600082821c905092915050565b6000620006d760001984600802620006b7565b1980831691505092915050565b6000620006f28383620006c4565b9150826002028217905092915050565b6200070d8262000492565b67ffffffffffffffff8111156200072957620007286200049d565b5b620007358254620004fb565b6200074282828562000667565b600060209050601f8311600181146200077a576000841562000765578287015190505b620007718582620006e4565b865550620007e1565b601f1984166200078a8662000530565b60005b82811015620007b4578489015182556001820191506020850194506020810190506200078d565b86831015620007d45784890151620007d0601f891682620006c4565b8355505b6001600288020188555050505b505050505050565b600082825260208201905092915050565b7f45524332303a206d696e7420746f20746865207a65726f206164647265737300600082015250565b600062000832601f83620007e9565b91506200083f82620007fa565b602082019050919050565b60006020820190508181036000830152620008658162000823565b9050919050565b7f4e487b7100000000000000000000000000000000000000000000000000000000600052601160045260246000fd5b6000620008a882620003fb565b9150620008b583620003fb565b9250828201905080821115620008d057620008cf6200086c565b5b92915050565b620008e181620003fb565b82525050565b6000602082019050620008fe6000830184620008d6565b92915050565b611dcb80620009146000396000f3fe608060405234801561001057600080fd5b50600436106101215760003560e01c8063715018a6116100ad578063c00007b011610071578063c00007b014610322578063c884ef831461033e578063d279c1911461036e578063dd62ed3e1461038a578063f2fde38b146103ba57610121565b8063715018a61461027c5780638da5cb5b1461028657806395d89b41146102a4578063a457c2d7146102c2578063a9059cbb146102f257610121565b8063313ce567116100f4578063313ce567146101c25780633535f48b146101e057806339509351146101fe5780634b71bff31461022e57806370a082311461024c57610121565b806306fdde0314610126578063095ea7b31461014457806318160ddd1461017457806323b872dd14610192575b600080fd5b61012e6103d6565b60405161013b91906112a0565b60405180910390f35b61015e6004803603810190610159919061135b565b610468565b60405161016b91906113b6565b60405180910390f35b61017c61048b565b60405161018991906113e0565b60405180910390f35b6101ac60048036038101906101a791906113fb565b610495565b6040516101b991906113b6565b60405180910390f35b6101ca6104c4565b6040516101d7919061146a565b60405180910390f35b6101e86104cd565b6040516101f59190611494565b60405180910390f35b6102186004803603810190610213919061135b565b6104f3565b60405161022591906113b6565b60405180910390f35b61023661052a565b60405161024391906113e0565b60405180910390f35b610266600480360381019061026191906114af565b610530565b60405161027391906113e0565b60405180910390f35b610284610578565b005b61028e61058c565b60405161029b9190611494565b60405180910390f35b6102ac6105b6565b6040516102b991906112a0565b60405180910390f35b6102dc60048036038101906102d7919061135b565b610648565b6040516102e991906113b6565b60405180910390f35b61030c6004803603810190610307919061135b565b6106bf565b60405161031991906113b6565b60405180910390f35b61033c600480360381019061033791906114af565b6106e2565b005b610358600480360381019061035391906114af565b610830565b60405161036591906113b6565b60405180910390f35b610388600480360381019061038391906114af565b610850565b005b6103a4600480360381019061039f91906114dc565b610ae5565b6040516103b191906113e0565b60405180910390f35b6103d460048036038101906103cf91906114af565b610b6c565b005b6060600380546103e59061154b565b80601f01602080910402602001604051908101604052809291908181526020018280546104119061154b565b801561045e5780601f106104335761010080835404028352916020019161045e565b820191906000526020600020905b81548152906001019060200180831161044157829003601f168201915b5050505050905090565b600080610473610bef565b9050610480818585610bf7565b600191505092915050565b6000600254905090565b6000806104a0610bef565b90506104ad858285610dc0565b6104b8858585610e4c565b60019150509392505050565b60006012905090565b600660009054906101000a900473ffffffffffffffffffffffffffffffffffffffff1681565b6000806104fe610bef565b905061051f8185856105108589610ae5565b61051a91906115ab565b610bf7565b600191505092915050565b60075481565b60008060008373ffffffffffffffffffffffffffffffffffffffff1673ffffffffffffffffffffffffffffffffffffffff168152602001908152602001600020549050919050565b6105806110c2565b61058a6000611140565b565b6000600560009054906101000a900473ffffffffffffffffffffffffffffffffffffffff16905090565b6060600480546105c59061154b565b80601f01602080910402602001604051908101604052809291908181526020018280546105f19061154b565b801561063e5780601f106106135761010080835404028352916020019161063e565b820191906000526020600020905b81548152906001019060200180831161062157829003601f168201915b5050505050905090565b600080610653610bef565b905060006106618286610ae5565b9050838110156106a6576040517f08c379a000000000000000000000000000000000000000000000000000000000815260040161069d90611651565b60405180910390fd5b6106b38286868403610bf7565b60019250505092915050565b6000806106ca610bef565b90506106d7818585610e4c565b600191505092915050565b600860008273ffffffffffffffffffffffffffffffffffffffff1673ffffffffffffffffffffffffffffffffffffffff16815260200190815260200160002060009054906101000a900460ff1661076e576040517f08c379a0000000000000000000000000000000000000000000000000000000008152600401610765906116bd565b60405180910390fd5b3073ffffffffffffffffffffffffffffffffffffffff1663a9059cbb826007546040518363ffffffff1660e01b81526004016107ab9291906116dd565b6020604051808303816000875af11580156107ca573d6000803e3d6000fd5b505050506040513d601f19601f820116820180604052508101906107ee9190611732565b61082d576040517f08c379a0000000000000000000000000000000000000000000000000000000008152600401610824906117ab565b60405180910390fd5b50565b60086020528060005260406000206000915054906101000a900460ff1681565b600660009054906101000a900473ffffffffffffffffffffffffffffffffffffffff1673ffffffffffffffffffffffffffffffffffffffff1663a85adeab6040518163ffffffff1660e01b8152600401602060405180830381865afa1580156108bd573d6000803e3d6000fd5b505050506040513d601f19601f820116820180604052508101906108e191906117e0565b4211610922576040517f08c379a000000000000000000000000000000000000000000000000000000000815260040161091990611859565b60405180910390fd5b600860003373ffffffffffffffffffffffffffffffffffffffff1673ffffffffffffffffffffffffffffffffffffffff16815260200190815260200160002060009054906101000a900460ff16156109af576040517f08c379a00000000000000000000000000000000000000000000000000000000081526004016109a6906118c5565b60405180910390fd5b600660009054906101000a900473ffffffffffffffffffffffffffffffffffffffff1673ffffffffffffffffffffffffffffffffffffffff1663d88c271e826040518263ffffffff1660e01b8152600401610a0a9190611494565b602060405180830381865afa158015610a27573d6000803e3d6000fd5b505050506040513d601f19601f82011682018060405250810190610a4b9190611732565b610a8a576040517f08c379a0000000000000000000000000000000000000000000000000000000008152600401610a8190611931565b60405180910390fd5b6001600860003373ffffffffffffffffffffffffffffffffffffffff1673ffffffffffffffffffffffffffffffffffffffff16815260200190815260200160002060006101000a81548160ff02191690831515021790555050565b6000600160008473ffffffffffffffffffffffffffffffffffffffff1673ffffffffffffffffffffffffffffffffffffffff16815260200190815260200160002060008373ffffffffffffffffffffffffffffffffffffffff1673ffffffffffffffffffffffffffffffffffffffff16815260200190815260200160002054905092915050565b610b746110c2565b600073ffffffffffffffffffffffffffffffffffffffff168173ffffffffffffffffffffffffffffffffffffffff1603610be3576040517f08c379a0000000000000000000000000000000000000000000000000000000008152600401610bda906119c3565b60405180910390fd5b610bec81611140565b50565b600033905090565b600073ffffffffffffffffffffffffffffffffffffffff168373ffffffffffffffffffffffffffffffffffffffff1603610c66576040517f08c379a0000000000000000000000000000000000000000000000000000000008152600401610c5d90611a55565b60405180910390fd5b600073ffffffffffffffffffffffffffffffffffffffff168273ffffffffffffffffffffffffffffffffffffffff1603610cd5576040517f08c379a0000000000000000000000000000000000000000000000000000000008152600401610ccc90611ae7565b60405180910390fd5b80600160008573ffffffffffffffffffffffffffffffffffffffff1673ffffffffffffffffffffffffffffffffffffffff16815260200190815260200160002060008473ffffffffffffffffffffffffffffffffffffffff1673ffffffffffffffffffffffffffffffffffffffff168152602001908152602001600020819055508173ffffffffffffffffffffffffffffffffffffffff168373ffffffffffffffffffffffffffffffffffffffff167f8c5be1e5ebec7d5bd14f71427d1e84f3dd0314c0f7b2291e5b200ac8c7c3b92583604051610db391906113e0565b60405180910390a3505050565b6000610dcc8484610ae5565b90507fffffffffffffffffffffffffffffffffffffffffffffffffffffffffffffffff8114610e465781811015610e38576040517f08c379a0000000000000000000000000000000000000000000000000000000008152600401610e2f90611b53565b60405180910390fd5b610e458484848403610bf7565b5b50505050565b600073ffffffffffffffffffffffffffffffffffffffff168373ffffffffffffffffffffffffffffffffffffffff1603610ebb576040517f08c379a0000000000000000000000000000000000000000000000000000000008152600401610eb290611be5565b60405180910390fd5b600073ffffffffffffffffffffffffffffffffffffffff168273ffffffffffffffffffffffffffffffffffffffff1603610f2a576040517f08c379a0000000000000000000000000000000000000000000000000000000008152600401610f2190611c77565b60405180910390fd5b610f35838383611206565b60008060008573ffffffffffffffffffffffffffffffffffffffff1673ffffffffffffffffffffffffffffffffffffffff16815260200190815260200160002054905081811015610fbb576040517f08c379a0000000000000000000000000000000000000000000000000000000008152600401610fb290611d09565b60405180910390fd5b8181036000808673ffffffffffffffffffffffffffffffffffffffff1673ffffffffffffffffffffffffffffffffffffffff16815260200190815260200160002081905550816000808573ffffffffffffffffffffffffffffffffffffffff1673ffffffffffffffffffffffffffffffffffffffff168152602001908152602001600020600082825401925050819055508273ffffffffffffffffffffffffffffffffffffffff168473ffffffffffffffffffffffffffffffffffffffff167fddf252ad1be2c89b69c2b068fc378daa952ba7f163c4a11628f55a4df523b3ef846040516110a991906113e0565b60405180910390a36110bc84848461120b565b50505050565b6110ca610bef565b73ffffffffffffffffffffffffffffffffffffffff166110e861058c565b73ffffffffffffffffffffffffffffffffffffffff161461113e576040517f08c379a000000000000000000000000000000000000000000000000000000000815260040161113590611d75565b60405180910390fd5b565b6000600560009054906101000a900473ffffffffffffffffffffffffffffffffffffffff16905081600560006101000a81548173ffffffffffffffffffffffffffffffffffffffff021916908373ffffffffffffffffffffffffffffffffffffffff1602179055508173ffffffffffffffffffffffffffffffffffffffff168173ffffffffffffffffffffffffffffffffffffffff167f8be0079c531659141344cd1fd0a4f28419497f9722a3daafe3b4186f6b6457e060405160405180910390a35050565b505050565b505050565b600081519050919050565b600082825260208201905092915050565b60005b8381101561124a57808201518184015260208101905061122f565b60008484015250505050565b6000601f19601f8301169050919050565b600061127282611210565b61127c818561121b565b935061128c81856020860161122c565b61129581611256565b840191505092915050565b600060208201905081810360008301526112ba8184611267565b905092915050565b600080fd5b600073ffffffffffffffffffffffffffffffffffffffff82169050919050565b60006112f2826112c7565b9050919050565b611302816112e7565b811461130d57600080fd5b50565b60008135905061131f816112f9565b92915050565b6000819050919050565b61133881611325565b811461134357600080fd5b50565b6000813590506113558161132f565b92915050565b60008060408385031215611372576113716112c2565b5b600061138085828601611310565b925050602061139185828601611346565b9150509250929050565b60008115159050919050565b6113b08161139b565b82525050565b60006020820190506113cb60008301846113a7565b92915050565b6113da81611325565b82525050565b60006020820190506113f560008301846113d1565b92915050565b600080600060608486031215611414576114136112c2565b5b600061142286828701611310565b935050602061143386828701611310565b925050604061144486828701611346565b9150509250925092565b600060ff82169050919050565b6114648161144e565b82525050565b600060208201905061147f600083018461145b565b92915050565b61148e816112e7565b82525050565b60006020820190506114a96000830184611485565b92915050565b6000602082840312156114c5576114c46112c2565b5b60006114d384828501611310565b91505092915050565b600080604083850312156114f3576114f26112c2565b5b600061150185828601611310565b925050602061151285828601611310565b9150509250929050565b7f4e487b7100000000000000000000000000000000000000000000000000000000600052602260045260246000fd5b6000600282049050600182168061156357607f821691505b6020821081036115765761157561151c565b5b50919050565b7f4e487b7100000000000000000000000000000000000000000000000000000000600052601160045260246000fd5b60006115b682611325565b91506115c183611325565b92508282019050808211156115d9576115d861157c565b5b92915050565b7f45524332303a2064656372656173656420616c6c6f77616e63652062656c6f7760008201527f207a65726f000000000000000000000000000000000000000000000000000000602082015250565b600061163b60258361121b565b9150611646826115df565b604082019050919050565b6000602082019050818103600083015261166a8161162e565b9050919050565b7f6e6f2072657761726420746f2077697468647261770000000000000000000000600082015250565b60006116a760158361121b565b91506116b282611671565b602082019050919050565b600060208201905081810360008301526116d68161169a565b9050919050565b60006040820190506116f26000830185611485565b6116ff60208301846113d1565b9392505050565b61170f8161139b565b811461171a57600080fd5b50565b60008151905061172c81611706565b92915050565b600060208284031215611748576117476112c2565b5b60006117568482850161171d565b91505092915050565b7f4661696c656420746f207472616e736665722072657761726420746f6b656e73600082015250565b600061179560208361121b565b91506117a08261175f565b602082019050919050565b600060208201905081810360008301526117c481611788565b9050919050565b6000815190506117da8161132f565b92915050565b6000602082840312156117f6576117f56112c2565b5b6000611804848285016117cb565b91505092915050565b7f5374616b696e6720706572696f64206e6f7420656e6465642079657400000000600082015250565b6000611843601c8361121b565b915061184e8261180d565b602082019050919050565b6000602082019050818103600083015261187281611836565b9050919050565b7f2052657761726420616c726561647920636c61696d6564000000000000000000600082015250565b60006118af60178361121b565b91506118ba82611879565b602082019050919050565b600060208201905081810360008301526118de816118a2565b9050919050565b7f496e76616c69642070726f6f6600000000000000000000000000000000000000600082015250565b600061191b600d8361121b565b9150611926826118e5565b602082019050919050565b6000602082019050818103600083015261194a8161190e565b9050919050565b7f4f776e61626c653a206e6577206f776e657220697320746865207a65726f206160008201527f6464726573730000000000000000000000000000000000000000000000000000602082015250565b60006119ad60268361121b565b91506119b882611951565b604082019050919050565b600060208201905081810360008301526119dc816119a0565b9050919050565b7f45524332303a20617070726f76652066726f6d20746865207a65726f2061646460008201527f7265737300000000000000000000000000000000000000000000000000000000602082015250565b6000611a3f60248361121b565b9150611a4a826119e3565b604082019050919050565b60006020820190508181036000830152611a6e81611a32565b9050919050565b7f45524332303a20617070726f766520746f20746865207a65726f20616464726560008201527f7373000000000000000000000000000000000000000000000000000000000000602082015250565b6000611ad160228361121b565b9150611adc82611a75565b604082019050919050565b60006020820190508181036000830152611b0081611ac4565b9050919050565b7f45524332303a20696e73756666696369656e7420616c6c6f77616e6365000000600082015250565b6000611b3d601d8361121b565b9150611b4882611b07565b602082019050919050565b60006020820190508181036000830152611b6c81611b30565b9050919050565b7f45524332303a207472616e736665722066726f6d20746865207a65726f20616460008201527f6472657373000000000000000000000000000000000000000000000000000000602082015250565b6000611bcf60258361121b565b9150611bda82611b73565b604082019050919050565b60006020820190508181036000830152611bfe81611bc2565b9050919050565b7f45524332303a207472616e7366657220746f20746865207a65726f206164647260008201527f6573730000000000000000000000000000000000000000000000000000000000602082015250565b6000611c6160238361121b565b9150611c6c82611c05565b604082019050919050565b60006020820190508181036000830152611c9081611c54565b9050919050565b7f45524332303a207472616e7366657220616d6f756e742065786365656473206260008201527f616c616e63650000000000000000000000000000000000000000000000000000602082015250565b6000611cf360268361121b565b9150611cfe82611c97565b604082019050919050565b60006020820190508181036000830152611d2281611ce6565b9050919050565b7f4f776e61626c653a2063616c6c6572206973206e6f7420746865206f776e6572600082015250565b6000611d5f60208361121b565b9150611d6a82611d29565b602082019050919050565b60006020820190508181036000830152611d8e81611d52565b905091905056fea26469706673582212206f6f78b37d1543a7c395fbebeef676c2806805a17b8c117e6bf1f6c4f3142c0564736f6c63430008120033",
  "devdoc": {
    "events": {
      "Approval(address,address,uint256)": {
        "details": "Emitted when the allowance of a `spender` for an `owner` is set by a call to {approve}. `value` is the new allowance."
      },
      "Transfer(address,address,uint256)": {
        "details": "Emitted when `value` tokens are moved from one account (`from`) to another (`to`). Note that `value` may be zero."
      }
    },
    "kind": "dev",
    "methods": {
      "allowance(address,address)": {
        "details": "See {IERC20-allowance}."
      },
      "approve(address,uint256)": {
        "details": "See {IERC20-approve}. NOTE: If `amount` is the maximum `uint256`, the allowance is not updated on `transferFrom`. This is semantically equivalent to an infinite approval. Requirements: - `spender` cannot be the zero address."
      },
      "balanceOf(address)": {
        "details": "See {IERC20-balanceOf}."
      },
      "decimals()": {
        "details": "Returns the number of decimals used to get its user representation. For example, if `decimals` equals `2`, a balance of `505` tokens should be displayed to a user as `5.05` (`505 / 10 ** 2`). Tokens usually opt for a value of 18, imitating the relationship between Ether and Wei. This is the value {ERC20} uses, unless this function is overridden; NOTE: This information is only used for _display_ purposes: it in no way affects any of the arithmetic of the contract, including {IERC20-balanceOf} and {IERC20-transfer}."
      },
      "decreaseAllowance(address,uint256)": {
        "details": "Atomically decreases the allowance granted to `spender` by the caller. This is an alternative to {approve} that can be used as a mitigation for problems described in {IERC20-approve}. Emits an {Approval} event indicating the updated allowance. Requirements: - `spender` cannot be the zero address. - `spender` must have allowance for the caller of at least `subtractedValue`."
      },
      "getReward(address)": {
        "details": "this function used to get reward as airdrop"
      },
      "increaseAllowance(address,uint256)": {
        "details": "Atomically increases the allowance granted to `spender` by the caller. This is an alternative to {approve} that can be used as a mitigation for problems described in {IERC20-approve}. Emits an {Approval} event indicating the updated allowance. Requirements: - `spender` cannot be the zero address."
      },
      "name()": {
        "details": "Returns the name of the token."
      },
      "owner()": {
        "details": "Returns the address of the current owner."
      },
      "renounceOwnership()": {
        "details": "Leaves the contract without owner. It will not be possible to call `onlyOwner` functions anymore. Can only be called by the current owner. NOTE: Renouncing ownership will leave the contract without an owner, thereby removing any functionality that is only available to the owner."
      },
      "symbol()": {
        "details": "Returns the symbol of the token, usually a shorter version of the name."
      },
      "totalSupply()": {
        "details": "See {IERC20-totalSupply}."
      },
      "transfer(address,uint256)": {
        "details": "See {IERC20-transfer}. Requirements: - `to` cannot be the zero address. - the caller must have a balance of at least `amount`."
      },
      "transferFrom(address,address,uint256)": {
        "details": "See {IERC20-transferFrom}. Emits an {Approval} event indicating the updated allowance. This is not required by the EIP. See the note at the beginning of {ERC20}. NOTE: Does not update the allowance if the current allowance is the maximum `uint256`. Requirements: - `from` and `to` cannot be the zero address. - `from` must have a balance of at least `amount`. - the caller must have allowance for ``from``'s tokens of at least `amount`."
      },
      "transferOwnership(address)": {
        "details": "Transfers ownership of the contract to a new account (`newOwner`). Can only be called by the current owner."
      }
    },
    "version": 1
  },
  "userdoc": {
    "kind": "user",
    "methods": {},
    "version": 1
  },
  "storageLayout": {
    "storage": [
      {
        "astId": 2951,
        "contract": "contracts/airdrop.sol:Airdrop",
        "label": "_balances",
        "offset": 0,
        "slot": "0",
        "type": "t_mapping(t_address,t_uint256)"
      },
      {
        "astId": 2957,
        "contract": "contracts/airdrop.sol:Airdrop",
        "label": "_allowances",
        "offset": 0,
        "slot": "1",
        "type": "t_mapping(t_address,t_mapping(t_address,t_uint256))"
      },
      {
        "astId": 2959,
        "contract": "contracts/airdrop.sol:Airdrop",
        "label": "_totalSupply",
        "offset": 0,
        "slot": "2",
        "type": "t_uint256"
      },
      {
        "astId": 2961,
        "contract": "contracts/airdrop.sol:Airdrop",
        "label": "_name",
        "offset": 0,
        "slot": "3",
        "type": "t_string_storage"
      },
      {
        "astId": 2963,
        "contract": "contracts/airdrop.sol:Airdrop",
        "label": "_symbol",
        "offset": 0,
        "slot": "4",
        "type": "t_string_storage"
      },
      {
        "astId": 2830,
        "contract": "contracts/airdrop.sol:Airdrop",
        "label": "_owner",
        "offset": 0,
        "slot": "5",
        "type": "t_address"
      },
      {
        "astId": 4251,
        "contract": "contracts/airdrop.sol:Airdrop",
        "label": "stakingContractAddress",
        "offset": 0,
        "slot": "6",
        "type": "t_address"
      },
      {
        "astId": 4253,
        "contract": "contracts/airdrop.sol:Airdrop",
        "label": "airdropReward",
        "offset": 0,
        "slot": "7",
        "type": "t_uint256"
      },
      {
        "astId": 4257,
        "contract": "contracts/airdrop.sol:Airdrop",
        "label": "claimed",
        "offset": 0,
        "slot": "8",
        "type": "t_mapping(t_address,t_bool)"
      }
    ],
    "types": {
      "t_address": {
        "encoding": "inplace",
        "label": "address",
        "numberOfBytes": "20"
      },
      "t_bool": {
        "encoding": "inplace",
        "label": "bool",
        "numberOfBytes": "1"
      },
      "t_mapping(t_address,t_bool)": {
        "encoding": "mapping",
        "key": "t_address",
        "label": "mapping(address => bool)",
        "numberOfBytes": "32",
        "value": "t_bool"
      },
      "t_mapping(t_address,t_mapping(t_address,t_uint256))": {
        "encoding": "mapping",
        "key": "t_address",
        "label": "mapping(address => mapping(address => uint256))",
        "numberOfBytes": "32",
        "value": "t_mapping(t_address,t_uint256)"
      },
      "t_mapping(t_address,t_uint256)": {
        "encoding": "mapping",
        "key": "t_address",
        "label": "mapping(address => uint256)",
        "numberOfBytes": "32",
        "value": "t_uint256"
      },
      "t_string_storage": {
        "encoding": "bytes",
        "label": "string",
        "numberOfBytes": "32"
      },
      "t_uint256": {
        "encoding": "inplace",
        "label": "uint256",
        "numberOfBytes": "32"
      }
    }
  }
}