{
  "address": "0xCf7Ed3AccA5a467e9e704C703E8D87F634fB0Fc9",
  "abi": [
    {
      "anonymous": false,
      "inputs": [
        {
          "indexed": false,
          "internalType": "uint8",
          "name": "version",
          "type": "uint8"
        }
      ],
      "name": "Initialized",
      "type": "event"
    },
    {
      "anonymous": false,
      "inputs": [
        {
          "indexed": true,
          "internalType": "address",
          "name": "previousOwner",
          "type": "address"
        },
        {
          "indexed": true,
          "internalType": "address",
          "name": "newOwner",
          "type": "address"
        }
      ],
      "name": "OwnershipTransferred",
      "type": "event"
    },
    {
      "anonymous": false,
      "inputs": [
        {
          "indexed": true,
          "internalType": "address",
          "name": "user",
          "type": "address"
        },
        {
          "indexed": false,
          "internalType": "uint256",
          "name": "amount",
          "type": "uint256"
        }
      ],
      "name": "RewardPaid",
      "type": "event"
    },
    {
      "anonymous": false,
      "inputs": [
        {
          "indexed": true,
          "internalType": "bytes32",
          "name": "role",
          "type": "bytes32"
        },
        {
          "indexed": true,
          "internalType": "bytes32",
          "name": "previousAdminRole",
          "type": "bytes32"
        },
        {
          "indexed": true,
          "internalType": "bytes32",
          "name": "newAdminRole",
          "type": "bytes32"
        }
      ],
      "name": "RoleAdminChanged",
      "type": "event"
    },
    {
      "anonymous": false,
      "inputs": [
        {
          "indexed": true,
          "internalType": "bytes32",
          "name": "role",
          "type": "bytes32"
        },
        {
          "indexed": true,
          "internalType": "address",
          "name": "account",
          "type": "address"
        },
        {
          "indexed": true,
          "internalType": "address",
          "name": "sender",
          "type": "address"
        }
      ],
      "name": "RoleGranted",
      "type": "event"
    },
    {
      "anonymous": false,
      "inputs": [
        {
          "indexed": true,
          "internalType": "bytes32",
          "name": "role",
          "type": "bytes32"
        },
        {
          "indexed": true,
          "internalType": "address",
          "name": "account",
          "type": "address"
        },
        {
          "indexed": true,
          "internalType": "address",
          "name": "sender",
          "type": "address"
        }
      ],
      "name": "RoleRevoked",
      "type": "event"
    },
    {
      "anonymous": false,
      "inputs": [
        {
          "indexed": true,
          "internalType": "address",
          "name": "user",
          "type": "address"
        },
        {
          "indexed": true,
          "internalType": "address",
          "name": "token",
          "type": "address"
        },
        {
          "indexed": false,
          "internalType": "uint256",
          "name": "amount",
          "type": "uint256"
        }
      ],
      "name": "Staked",
      "type": "event"
    },
    {
      "anonymous": false,
      "inputs": [
        {
          "indexed": true,
          "internalType": "address",
          "name": "user",
          "type": "address"
        }
      ],
      "name": "UpdateReward",
      "type": "event"
    },
    {
      "anonymous": false,
      "inputs": [
        {
          "indexed": true,
          "internalType": "address",
          "name": "user",
          "type": "address"
        },
        {
          "indexed": true,
          "internalType": "address",
          "name": "token",
          "type": "address"
        },
        {
          "indexed": false,
          "internalType": "uint256",
          "name": "amount",
          "type": "uint256"
        }
      ],
      "name": "Withdrawn",
      "type": "event"
    },
    {
      "inputs": [],
      "name": "DEFAULT_ADMIN_ROLE",
      "outputs": [
        {
          "internalType": "bytes32",
          "name": "",
          "type": "bytes32"
        }
      ],
      "stateMutability": "view",
      "type": "function"
    },
    {
      "inputs": [],
      "name": "REWARD",
      "outputs": [
        {
          "internalType": "uint256",
          "name": "",
          "type": "uint256"
        }
      ],
      "stateMutability": "view",
      "type": "function"
    },
    {
      "inputs": [
        {
          "internalType": "address",
          "name": "_token",
          "type": "address"
        }
      ],
      "name": "addWhitelistToken",
      "outputs": [],
      "stateMutability": "nonpayable",
      "type": "function"
    },
    {
      "inputs": [
        {
          "internalType": "address",
          "name": "user",
          "type": "address"
        },
        {
          "internalType": "address",
          "name": "token",
          "type": "address"
        }
      ],
      "name": "balanceOf",
      "outputs": [
        {
          "internalType": "uint256",
          "name": "",
          "type": "uint256"
        }
      ],
      "stateMutability": "view",
      "type": "function"
    },
    {
      "inputs": [],
      "name": "blockAtEndTimestamp",
      "outputs": [
        {
          "internalType": "uint256",
          "name": "",
          "type": "uint256"
        }
      ],
      "stateMutability": "view",
      "type": "function"
    },
    {
      "inputs": [],
      "name": "blockNumberAtEndTimestamp",
      "outputs": [],
      "stateMutability": "nonpayable",
      "type": "function"
    },
    {
      "inputs": [],
      "name": "endTimestamp",
      "outputs": [
        {
          "internalType": "uint256",
          "name": "",
          "type": "uint256"
        }
      ],
      "stateMutability": "view",
      "type": "function"
    },
    {
      "inputs": [
        {
          "internalType": "bytes32",
          "name": "role",
          "type": "bytes32"
        }
      ],
      "name": "getRoleAdmin",
      "outputs": [
        {
          "internalType": "bytes32",
          "name": "",
          "type": "bytes32"
        }
      ],
      "stateMutability": "view",
      "type": "function"
    },
    {
      "inputs": [
        {
          "internalType": "bytes32",
          "name": "role",
          "type": "bytes32"
        },
        {
          "internalType": "address",
          "name": "account",
          "type": "address"
        }
      ],
      "name": "grantRole",
      "outputs": [],
      "stateMutability": "nonpayable",
      "type": "function"
    },
    {
      "inputs": [
        {
          "internalType": "bytes32",
          "name": "role",
          "type": "bytes32"
        },
        {
          "internalType": "address",
          "name": "account",
          "type": "address"
        }
      ],
      "name": "hasRole",
      "outputs": [
        {
          "internalType": "bool",
          "name": "",
          "type": "bool"
        }
      ],
      "stateMutability": "view",
      "type": "function"
    },
    {
      "inputs": [
        {
          "internalType": "uint256",
          "name": "_startTimestamp",
          "type": "uint256"
        },
        {
          "internalType": "uint256",
          "name": "_endTimestamp",
          "type": "uint256"
        },
        {
          "internalType": "address",
          "name": "rewardToken",
          "type": "address"
        }
      ],
      "name": "initialize",
      "outputs": [],
      "stateMutability": "nonpayable",
      "type": "function"
    },
    {
      "inputs": [
        {
          "internalType": "address",
          "name": "token",
          "type": "address"
        }
      ],
      "name": "isWhitelistedToken",
      "outputs": [
        {
          "internalType": "bool",
          "name": "",
          "type": "bool"
        }
      ],
      "stateMutability": "view",
      "type": "function"
    },
    {
      "inputs": [
        {
          "internalType": "address",
          "name": "user",
          "type": "address"
        }
      ],
      "name": "isWhitelistedUser",
      "outputs": [
        {
          "internalType": "bool",
          "name": "",
          "type": "bool"
        }
      ],
      "stateMutability": "view",
      "type": "function"
    },
    {
      "inputs": [],
      "name": "owner",
      "outputs": [
        {
          "internalType": "address",
          "name": "",
          "type": "address"
        }
      ],
      "stateMutability": "view",
      "type": "function"
    },
    {
      "inputs": [
        {
          "internalType": "address",
          "name": "_token",
          "type": "address"
        }
      ],
      "name": "removeWhitelistToken",
      "outputs": [],
      "stateMutability": "nonpayable",
      "type": "function"
    },
    {
      "inputs": [],
      "name": "renounceOwnership",
      "outputs": [],
      "stateMutability": "nonpayable",
      "type": "function"
    },
    {
      "inputs": [
        {
          "internalType": "bytes32",
          "name": "role",
          "type": "bytes32"
        },
        {
          "internalType": "address",
          "name": "account",
          "type": "address"
        }
      ],
      "name": "renounceRole",
      "outputs": [],
      "stateMutability": "nonpayable",
      "type": "function"
    },
    {
      "inputs": [
        {
          "internalType": "bytes32",
          "name": "role",
          "type": "bytes32"
        },
        {
          "internalType": "address",
          "name": "account",
          "type": "address"
        }
      ],
      "name": "revokeRole",
      "outputs": [],
      "stateMutability": "nonpayable",
      "type": "function"
    },
    {
      "inputs": [],
      "name": "rewardTokenContract",
      "outputs": [
        {
          "internalType": "address",
          "name": "",
          "type": "address"
        }
      ],
      "stateMutability": "view",
      "type": "function"
    },
    {
      "inputs": [
        {
          "internalType": "address",
          "name": "token",
          "type": "address"
        },
        {
          "internalType": "uint256",
          "name": "amount",
          "type": "uint256"
        }
      ],
      "name": "stake",
      "outputs": [],
      "stateMutability": "nonpayable",
      "type": "function"
    },
    {
      "inputs": [],
      "name": "startTimestamp",
      "outputs": [
        {
          "internalType": "uint256",
          "name": "",
          "type": "uint256"
        }
      ],
      "stateMutability": "view",
      "type": "function"
    },
    {
      "inputs": [
        {
          "internalType": "bytes4",
          "name": "interfaceId",
          "type": "bytes4"
        }
      ],
      "name": "supportsInterface",
      "outputs": [
        {
          "internalType": "bool",
          "name": "",
          "type": "bool"
        }
      ],
      "stateMutability": "view",
      "type": "function"
    },
    {
      "inputs": [
        {
          "internalType": "address",
          "name": "newOwner",
          "type": "address"
        }
      ],
      "name": "transferOwnership",
      "outputs": [],
      "stateMutability": "nonpayable",
      "type": "function"
    },
    {
      "inputs": [
        {
          "internalType": "address",
          "name": "token",
          "type": "address"
        },
        {
          "internalType": "uint256",
          "name": "amount",
          "type": "uint256"
        }
      ],
      "name": "withdraw",
      "outputs": [],
      "stateMutability": "nonpayable",
      "type": "function"
    }
  ],
  "transactionHash": "0x53c6752868bda29cfd4c0342cbbf2748f006993155f32c789a396ce1aa913a43",
  "args": [],
  "numDeployments": 1,
  "solcInputHash": "161bc21b0b7126f43bbc027b10390339",
  "bytecode": "0x608060405234801561001057600080fd5b50612da7806100206000396000f3fe608060405234801561001057600080fd5b50600436106101585760003560e01c8063a85adeab116100c3578063d88c271e1161007c578063d88c271e1461038d578063e6fd48bc146103bd578063e9ee9107146103db578063f2fde38b146103f7578063f3fef3a314610413578063f7888aec1461042f57610158565b8063a85adeab146102cb578063ab273e81146102e9578063ab37f48614610307578063adc9772e14610337578063cab34c0814610353578063d547741f1461037157610158565b806385774d041161011557806385774d041461021d5780638da5cb5b146102275780639168083c1461024557806391d1485414610261578063a217fddf14610291578063a6ab36f2146102af57610158565b806301ffc9a71461015d578063248a9ca31461018d5780632f2ff15d146101bd57806336568abe146101d9578063715018a6146101f55780638149b461146101ff575b600080fd5b61017760048036038101906101729190611e72565b61045f565b6040516101849190611eba565b60405180910390f35b6101a760048036038101906101a29190611f0b565b6104d9565b6040516101b49190611f47565b60405180910390f35b6101d760048036038101906101d29190611fc0565b6104f9565b005b6101f360048036038101906101ee9190611fc0565b61051a565b005b6101fd61059d565b005b6102076105b1565b6040516102149190612019565b60405180910390f35b6102256105b7565b005b61022f61060d565b60405161023c9190612043565b60405180910390f35b61025f600480360381019061025a919061205e565b610637565b005b61027b60048036038101906102769190611fc0565b61065d565b6040516102889190611eba565b60405180910390f35b6102996106c8565b6040516102a69190611f47565b60405180910390f35b6102c960048036038101906102c491906120b7565b6106cf565b005b6102d361091d565b6040516102e09190612019565b60405180910390f35b6102f1610923565b6040516102fe9190612043565b60405180910390f35b610321600480360381019061031c919061205e565b610949565b60405161032e9190611eba565b60405180910390f35b610351600480360381019061034c919061210a565b610966565b005b61035b610ca8565b6040516103689190612019565b60405180910390f35b61038b60048036038101906103869190611fc0565b610cad565b005b6103a760048036038101906103a2919061205e565b610cce565b6040516103b49190611eba565b60405180910390f35b6103c5610ceb565b6040516103d29190612019565b60405180910390f35b6103f560048036038101906103f0919061205e565b610cf1565b005b610411600480360381019061040c919061205e565b610d17565b005b61042d6004803603810190610428919061210a565b610d9a565b005b6104496004803603810190610444919061214a565b611081565b6040516104569190612019565b60405180910390f35b60007f7965db0b000000000000000000000000000000000000000000000000000000007bffffffffffffffffffffffffffffffffffffffffffffffffffffffff1916827bffffffffffffffffffffffffffffffffffffffffffffffffffffffff191614806104d257506104d182611108565b5b9050919050565b600060656000838152602001908152602001600020600101549050919050565b610502826104d9565b61050b81611172565b6105158383611186565b505050565b610522611267565b73ffffffffffffffffffffffffffffffffffffffff168173ffffffffffffffffffffffffffffffffffffffff161461058f576040517f08c379a00000000000000000000000000000000000000000000000000000000081526004016105869061220d565b60405180910390fd5b610599828261126f565b5050565b6105a5611351565b6105af60006113cf565b565b60cb5481565b6000801b6105c481611172565b60cc60149054906101000a900460ff161580156105e2575060ca5442115b1561060a574360cb81905550600160cc60146101000a81548160ff0219169083151502179055505b50565b6000609760009054906101000a900473ffffffffffffffffffffffffffffffffffffffff16905090565b6000801b61064481611172565b6106588260cd61149590919063ffffffff16565b505050565b60006065600084815260200190815260200160002060000160008373ffffffffffffffffffffffffffffffffffffffff1673ffffffffffffffffffffffffffffffffffffffff16815260200190815260200160002060009054906101000a900460ff16905092915050565b6000801b81565b60008060019054906101000a900460ff161590508080156107005750600160008054906101000a900460ff1660ff16105b8061072d575061070f306114c5565b15801561072c5750600160008054906101000a900460ff1660ff16145b5b61076c576040517f08c379a00000000000000000000000000000000000000000000000000000000081526004016107639061229f565b60405180910390fd5b60016000806101000a81548160ff021916908360ff16021790555080156107a9576001600060016101000a81548160ff0219169083151502179055505b8383116107eb576040517f08c379a00000000000000000000000000000000000000000000000000000000081526004016107e290612331565b60405180910390fd5b600073ffffffffffffffffffffffffffffffffffffffff168273ffffffffffffffffffffffffffffffffffffffff160361085a576040517f08c379a00000000000000000000000000000000000000000000000000000000081526004016108519061239d565b60405180910390fd5b6108626114e8565b61086f6000801b33611539565b8360c9819055508260ca819055508160cc60006101000a81548173ffffffffffffffffffffffffffffffffffffffff021916908373ffffffffffffffffffffffffffffffffffffffff16021790555080156109175760008060016101000a81548160ff0219169083151502179055507f7f26b83ff96e1f2b6a682f133852f6798a09c465da95921460cefb3847402498600160405161090e919061240f565b60405180910390a15b50505050565b60ca5481565b60cc60009054906101000a900473ffffffffffffffffffffffffffffffffffffffff1681565b600061095f8260cd61154790919063ffffffff16565b9050919050565b60c954421015801561097a575060ca544211155b6109b9576040517f08c379a00000000000000000000000000000000000000000000000000000000081526004016109b090612476565b60405180910390fd5b816109ce8160cd61154790919063ffffffff16565b610a0d576040517f08c379a0000000000000000000000000000000000000000000000000000000008152600401610a04906124e2565b60405180910390fd5b60008211610a50576040517f08c379a0000000000000000000000000000000000000000000000000000000008152600401610a479061254e565b60405180910390fd5b60008373ffffffffffffffffffffffffffffffffffffffff166323b872dd3330866040518463ffffffff1660e01b8152600401610a8f9392919061256e565b6020604051808303816000875af1158015610aae573d6000803e3d6000fd5b505050506040513d601f19601f82011682018060405250810190610ad291906125d1565b905080610b14576040517f08c379a0000000000000000000000000000000000000000000000000000000008152600401610b0b9061264a565b60405180910390fd5b610b283360cf61149590919063ffffffff16565b508260d160003373ffffffffffffffffffffffffffffffffffffffff1673ffffffffffffffffffffffffffffffffffffffff16815260200190815260200160002060008673ffffffffffffffffffffffffffffffffffffffff1673ffffffffffffffffffffffffffffffffffffffff1681526020019081526020016000206000828254610bb59190612699565b925050819055504360d260003373ffffffffffffffffffffffffffffffffffffffff1673ffffffffffffffffffffffffffffffffffffffff16815260200190815260200160002060008673ffffffffffffffffffffffffffffffffffffffff1673ffffffffffffffffffffffffffffffffffffffff168152602001908152602001600020819055508373ffffffffffffffffffffffffffffffffffffffff163373ffffffffffffffffffffffffffffffffffffffff167f5dac0c1b1112564a045ba943c9d50270893e8e826c49be8e7073adc713ab7bd785604051610c9a9190612019565b60405180910390a350505050565b600181565b610cb6826104d9565b610cbf81611172565b610cc9838361126f565b505050565b6000610ce48260cf61154790919063ffffffff16565b9050919050565b60c95481565b6000801b610cfe81611172565b610d128260cd61157790919063ffffffff16565b505050565b610d1f611351565b600073ffffffffffffffffffffffffffffffffffffffff168173ffffffffffffffffffffffffffffffffffffffff1603610d8e576040517f08c379a0000000000000000000000000000000000000000000000000000000008152600401610d859061273f565b60405180910390fd5b610d97816113cf565b50565b81610daf8160cd61154790919063ffffffff16565b610dee576040517f08c379a0000000000000000000000000000000000000000000000000000000008152600401610de5906124e2565b60405180910390fd5b60008211610e31576040517f08c379a0000000000000000000000000000000000000000000000000000000008152600401610e28906127ab565b60405180910390fd5b8160d160003373ffffffffffffffffffffffffffffffffffffffff1673ffffffffffffffffffffffffffffffffffffffff16815260200190815260200160002060008573ffffffffffffffffffffffffffffffffffffffff1673ffffffffffffffffffffffffffffffffffffffff168152602001908152602001600020541015610ef0576040517f08c379a0000000000000000000000000000000000000000000000000000000008152600401610ee790612817565b60405180910390fd5b610efa33846115a7565b8273ffffffffffffffffffffffffffffffffffffffff166323b872dd3033856040518463ffffffff1660e01b8152600401610f379392919061256e565b6020604051808303816000875af1158015610f56573d6000803e3d6000fd5b505050506040513d601f19601f82011682018060405250810190610f7a91906125d1565b508160d160003373ffffffffffffffffffffffffffffffffffffffff1673ffffffffffffffffffffffffffffffffffffffff16815260200190815260200160002060008573ffffffffffffffffffffffffffffffffffffffff1673ffffffffffffffffffffffffffffffffffffffff16815260200190815260200160002060008282546110079190612837565b92505081905550611017336117bc565b8273ffffffffffffffffffffffffffffffffffffffff163373ffffffffffffffffffffffffffffffffffffffff167fd1c19fbcd4551a5edfb66d43d2e337c04837afda3482b42bdf569a8fccdae5fb846040516110749190612019565b60405180910390a3505050565b600060d160008473ffffffffffffffffffffffffffffffffffffffff1673ffffffffffffffffffffffffffffffffffffffff16815260200190815260200160002060008373ffffffffffffffffffffffffffffffffffffffff1673ffffffffffffffffffffffffffffffffffffffff16815260200190815260200160002054905092915050565b60007f01ffc9a7000000000000000000000000000000000000000000000000000000007bffffffffffffffffffffffffffffffffffffffffffffffffffffffff1916827bffffffffffffffffffffffffffffffffffffffffffffffffffffffff1916149050919050565b6111838161117e611267565b611980565b50565b611190828261065d565b6112635760016065600084815260200190815260200160002060000160008373ffffffffffffffffffffffffffffffffffffffff1673ffffffffffffffffffffffffffffffffffffffff16815260200190815260200160002060006101000a81548160ff021916908315150217905550611208611267565b73ffffffffffffffffffffffffffffffffffffffff168173ffffffffffffffffffffffffffffffffffffffff16837f2f8788117e7eff1d82e926ec794901d17c78024a50270940304540a733656f0d60405160405180910390a45b5050565b600033905090565b611279828261065d565b1561134d5760006065600084815260200190815260200160002060000160008373ffffffffffffffffffffffffffffffffffffffff1673ffffffffffffffffffffffffffffffffffffffff16815260200190815260200160002060006101000a81548160ff0219169083151502179055506112f2611267565b73ffffffffffffffffffffffffffffffffffffffff168173ffffffffffffffffffffffffffffffffffffffff16837ff6391f5c32d9c69d2a47ea670b442974b53935d1edc7fd64eb21e047a839171b60405160405180910390a45b5050565b611359611267565b73ffffffffffffffffffffffffffffffffffffffff1661137761060d565b73ffffffffffffffffffffffffffffffffffffffff16146113cd576040517f08c379a00000000000000000000000000000000000000000000000000000000081526004016113c4906128b7565b60405180910390fd5b565b6000609760009054906101000a900473ffffffffffffffffffffffffffffffffffffffff16905081609760006101000a81548173ffffffffffffffffffffffffffffffffffffffff021916908373ffffffffffffffffffffffffffffffffffffffff1602179055508173ffffffffffffffffffffffffffffffffffffffff168173ffffffffffffffffffffffffffffffffffffffff167f8be0079c531659141344cd1fd0a4f28419497f9722a3daafe3b4186f6b6457e060405160405180910390a35050565b60006114bd836000018373ffffffffffffffffffffffffffffffffffffffff1660001b611a05565b905092915050565b6000808273ffffffffffffffffffffffffffffffffffffffff163b119050919050565b600060019054906101000a900460ff16611537576040517f08c379a000000000000000000000000000000000000000000000000000000000815260040161152e90612949565b60405180910390fd5b565b6115438282611186565b5050565b600061156f836000018373ffffffffffffffffffffffffffffffffffffffff1660001b611a75565b905092915050565b600061159f836000018373ffffffffffffffffffffffffffffffffffffffff1660001b611a98565b905092915050565b600060ca544211156115e0576001600560cb54436115c59190612837565b6115cf9190612998565b6115d991906129c9565b9050611683565b6001600560d260008673ffffffffffffffffffffffffffffffffffffffff1673ffffffffffffffffffffffffffffffffffffffff16815260200190815260200160002060008573ffffffffffffffffffffffffffffffffffffffff1673ffffffffffffffffffffffffffffffffffffffff168152602001908152602001600020544361166c9190612837565b6116769190612998565b61168091906129c9565b90505b8060d360008573ffffffffffffffffffffffffffffffffffffffff1673ffffffffffffffffffffffffffffffffffffffff16815260200190815260200160002060008282546116d29190612699565b9250508190555060c95442101580156116ed575060ca544211155b15611774574360d260008573ffffffffffffffffffffffffffffffffffffffff1673ffffffffffffffffffffffffffffffffffffffff16815260200190815260200160002060008473ffffffffffffffffffffffffffffffffffffffff1673ffffffffffffffffffffffffffffffffffffffff168152602001908152602001600020819055505b8273ffffffffffffffffffffffffffffffffffffffff167f2855e8f67272fdbc2c16aa3bc3934ab2a0c92fb550b288f31132b6e9c60ccb5f60405160405180910390a2505050565b600060d360008373ffffffffffffffffffffffffffffffffffffffff1673ffffffffffffffffffffffffffffffffffffffff168152602001908152602001600020549050600081111561197c57600060d360008473ffffffffffffffffffffffffffffffffffffffff1673ffffffffffffffffffffffffffffffffffffffff168152602001908152602001600020819055508173ffffffffffffffffffffffffffffffffffffffff167fe2403640ba68fed3a2f88b7557551d1993f84b99bb10ff833f0cf8db0c5e0486826040516118949190612019565b60405180910390a260cc60009054906101000a900473ffffffffffffffffffffffffffffffffffffffff1673ffffffffffffffffffffffffffffffffffffffff1663a9059cbb83836040518363ffffffff1660e01b81526004016118f9929190612a0b565b6020604051808303816000875af1158015611918573d6000803e3d6000fd5b505050506040513d601f19601f8201168201806040525081019061193c91906125d1565b61197b576040517f08c379a000000000000000000000000000000000000000000000000000000000815260040161197290612a80565b60405180910390fd5b5b5050565b61198a828261065d565b611a015761199781611bac565b6119a58360001c6020611bd9565b6040516020016119b6929190612ba9565b6040516020818303038152906040526040517f08c379a00000000000000000000000000000000000000000000000000000000081526004016119f89190612c2d565b60405180910390fd5b5050565b6000611a118383611a75565b611a6a578260000182908060018154018082558091505060019003906000526020600020016000909190919091505582600001805490508360010160008481526020019081526020016000208190555060019050611a6f565b600090505b92915050565b600080836001016000848152602001908152602001600020541415905092915050565b60008083600101600084815260200190815260200160002054905060008114611ba0576000600182611aca9190612837565b9050600060018660000180549050611ae29190612837565b9050818114611b51576000866000018281548110611b0357611b02612c4f565b5b9060005260206000200154905080876000018481548110611b2757611b26612c4f565b5b90600052602060002001819055508387600101600083815260200190815260200160002081905550505b85600001805480611b6557611b64612c7e565b5b600190038181906000526020600020016000905590558560010160008681526020019081526020016000206000905560019350505050611ba6565b60009150505b92915050565b6060611bd28273ffffffffffffffffffffffffffffffffffffffff16601460ff16611bd9565b9050919050565b606060006002836002611bec91906129c9565b611bf69190612699565b67ffffffffffffffff811115611c0f57611c0e612cad565b5b6040519080825280601f01601f191660200182016040528015611c415781602001600182028036833780820191505090505b5090507f300000000000000000000000000000000000000000000000000000000000000081600081518110611c7957611c78612c4f565b5b60200101907effffffffffffffffffffffffffffffffffffffffffffffffffffffffffffff1916908160001a9053507f780000000000000000000000000000000000000000000000000000000000000081600181518110611cdd57611cdc612c4f565b5b60200101907effffffffffffffffffffffffffffffffffffffffffffffffffffffffffffff1916908160001a90535060006001846002611d1d91906129c9565b611d279190612699565b90505b6001811115611dc7577f3031323334353637383961626364656600000000000000000000000000000000600f861660108110611d6957611d68612c4f565b5b1a60f81b828281518110611d8057611d7f612c4f565b5b60200101907effffffffffffffffffffffffffffffffffffffffffffffffffffffffffffff1916908160001a905350600485901c945080611dc090612cdc565b9050611d2a565b5060008414611e0b576040517f08c379a0000000000000000000000000000000000000000000000000000000008152600401611e0290612d51565b60405180910390fd5b8091505092915050565b600080fd5b60007fffffffff0000000000000000000000000000000000000000000000000000000082169050919050565b611e4f81611e1a565b8114611e5a57600080fd5b50565b600081359050611e6c81611e46565b92915050565b600060208284031215611e8857611e87611e15565b5b6000611e9684828501611e5d565b91505092915050565b60008115159050919050565b611eb481611e9f565b82525050565b6000602082019050611ecf6000830184611eab565b92915050565b6000819050919050565b611ee881611ed5565b8114611ef357600080fd5b50565b600081359050611f0581611edf565b92915050565b600060208284031215611f2157611f20611e15565b5b6000611f2f84828501611ef6565b91505092915050565b611f4181611ed5565b82525050565b6000602082019050611f5c6000830184611f38565b92915050565b600073ffffffffffffffffffffffffffffffffffffffff82169050919050565b6000611f8d82611f62565b9050919050565b611f9d81611f82565b8114611fa857600080fd5b50565b600081359050611fba81611f94565b92915050565b60008060408385031215611fd757611fd6611e15565b5b6000611fe585828601611ef6565b9250506020611ff685828601611fab565b9150509250929050565b6000819050919050565b61201381612000565b82525050565b600060208201905061202e600083018461200a565b92915050565b61203d81611f82565b82525050565b60006020820190506120586000830184612034565b92915050565b60006020828403121561207457612073611e15565b5b600061208284828501611fab565b91505092915050565b61209481612000565b811461209f57600080fd5b50565b6000813590506120b18161208b565b92915050565b6000806000606084860312156120d0576120cf611e15565b5b60006120de868287016120a2565b93505060206120ef868287016120a2565b925050604061210086828701611fab565b9150509250925092565b6000806040838503121561212157612120611e15565b5b600061212f85828601611fab565b9250506020612140858286016120a2565b9150509250929050565b6000806040838503121561216157612160611e15565b5b600061216f85828601611fab565b925050602061218085828601611fab565b9150509250929050565b600082825260208201905092915050565b7f416363657373436f6e74726f6c3a2063616e206f6e6c792072656e6f756e636560008201527f20726f6c657320666f722073656c660000000000000000000000000000000000602082015250565b60006121f7602f8361218a565b91506122028261219b565b604082019050919050565b60006020820190508181036000830152612226816121ea565b9050919050565b7f496e697469616c697a61626c653a20636f6e747261637420697320616c72656160008201527f647920696e697469616c697a6564000000000000000000000000000000000000602082015250565b6000612289602e8361218a565b91506122948261222d565b604082019050919050565b600060208201905081810360008301526122b88161227c565b9050919050565b7f656e6454696d657374616d70206d75737420626520677265617465722074686160008201527f6e20737461727454696d657374616d7000000000000000000000000000000000602082015250565b600061231b60308361218a565b9150612326826122bf565b604082019050919050565b6000602082019050818103600083015261234a8161230e565b9050919050565b7f41646472657373206d757374206265206e6f6e207a65726f2061646472657373600082015250565b600061238760208361218a565b915061239282612351565b602082019050919050565b600060208201905081810360008301526123b68161237a565b9050919050565b6000819050919050565b600060ff82169050919050565b6000819050919050565b60006123f96123f46123ef846123bd565b6123d4565b6123c7565b9050919050565b612409816123de565b82525050565b60006020820190506124246000830184612400565b92915050565b7f4475726174696f6e206f76657200000000000000000000000000000000000000600082015250565b6000612460600d8361218a565b915061246b8261242a565b602082019050919050565b6000602082019050818103600083015261248f81612453565b9050919050565b7f546f6b656e206973206e6f742077686974656c69737465640000000000000000600082015250565b60006124cc60188361218a565b91506124d782612496565b602082019050919050565b600060208201905081810360008301526124fb816124bf565b9050919050565b7f416d6f756e74206d7573742062652067726561746572207468616e207a65726f600082015250565b600061253860208361218a565b915061254382612502565b602082019050919050565b600060208201905081810360008301526125678161252b565b9050919050565b60006060820190506125836000830186612034565b6125906020830185612034565b61259d604083018461200a565b949350505050565b6125ae81611e9f565b81146125b957600080fd5b50565b6000815190506125cb816125a5565b92915050565b6000602082840312156125e7576125e6611e15565b5b60006125f5848285016125bc565b91505092915050565b7f7374616b696e67207472616e73666572206661696c6564000000000000000000600082015250565b600061263460178361218a565b915061263f826125fe565b602082019050919050565b6000602082019050818103600083015261266381612627565b9050919050565b7f4e487b7100000000000000000000000000000000000000000000000000000000600052601160045260246000fd5b60006126a482612000565b91506126af83612000565b92508282019050808211156126c7576126c661266a565b5b92915050565b7f4f776e61626c653a206e6577206f776e657220697320746865207a65726f206160008201527f6464726573730000000000000000000000000000000000000000000000000000602082015250565b600061272960268361218a565b9150612734826126cd565b604082019050919050565b600060208201905081810360008301526127588161271c565b9050919050565b7f616d6f756e74206d7573742062652067726561746572207468616e207a65726f600082015250565b600061279560208361218a565b91506127a08261275f565b602082019050919050565b600060208201905081810360008301526127c481612788565b9050919050565b7f496e73756666696369656e742062616c616e6365000000000000000000000000600082015250565b600061280160148361218a565b915061280c826127cb565b602082019050919050565b60006020820190508181036000830152612830816127f4565b9050919050565b600061284282612000565b915061284d83612000565b92508282039050818111156128655761286461266a565b5b92915050565b7f4f776e61626c653a2063616c6c6572206973206e6f7420746865206f776e6572600082015250565b60006128a160208361218a565b91506128ac8261286b565b602082019050919050565b600060208201905081810360008301526128d081612894565b9050919050565b7f496e697469616c697a61626c653a20636f6e7472616374206973206e6f74206960008201527f6e697469616c697a696e67000000000000000000000000000000000000000000602082015250565b6000612933602b8361218a565b915061293e826128d7565b604082019050919050565b6000602082019050818103600083015261296281612926565b9050919050565b7f4e487b7100000000000000000000000000000000000000000000000000000000600052601260045260246000fd5b60006129a382612000565b91506129ae83612000565b9250826129be576129bd612969565b5b828204905092915050565b60006129d482612000565b91506129df83612000565b92508282026129ed81612000565b91508282048414831517612a0457612a0361266a565b5b5092915050565b6000604082019050612a206000830185612034565b612a2d602083018461200a565b9392505050565b7f4661696c656420746f207472616e736665722072657761726420746f6b656e73600082015250565b6000612a6a60208361218a565b9150612a7582612a34565b602082019050919050565b60006020820190508181036000830152612a9981612a5d565b9050919050565b600081905092915050565b7f416363657373436f6e74726f6c3a206163636f756e7420000000000000000000600082015250565b6000612ae1601783612aa0565b9150612aec82612aab565b601782019050919050565b600081519050919050565b60005b83811015612b20578082015181840152602081019050612b05565b60008484015250505050565b6000612b3782612af7565b612b418185612aa0565b9350612b51818560208601612b02565b80840191505092915050565b7f206973206d697373696e6720726f6c6520000000000000000000000000000000600082015250565b6000612b93601183612aa0565b9150612b9e82612b5d565b601182019050919050565b6000612bb482612ad4565b9150612bc08285612b2c565b9150612bcb82612b86565b9150612bd78284612b2c565b91508190509392505050565b6000601f19601f8301169050919050565b6000612bff82612af7565b612c09818561218a565b9350612c19818560208601612b02565b612c2281612be3565b840191505092915050565b60006020820190508181036000830152612c478184612bf4565b905092915050565b7f4e487b7100000000000000000000000000000000000000000000000000000000600052603260045260246000fd5b7f4e487b7100000000000000000000000000000000000000000000000000000000600052603160045260246000fd5b7f4e487b7100000000000000000000000000000000000000000000000000000000600052604160045260246000fd5b6000612ce782612000565b915060008203612cfa57612cf961266a565b5b600182039050919050565b7f537472696e67733a20686578206c656e67746820696e73756666696369656e74600082015250565b6000612d3b60208361218a565b9150612d4682612d05565b602082019050919050565b60006020820190508181036000830152612d6a81612d2e565b905091905056fea264697066735822122047ff33ddf2186b5d883a7fe1025a09accc716c3e37534bcff944c1078063d19564736f6c63430008120033",
  "devdoc": {
    "author": "Shivam Singh",
    "details": "A contract that allows users to stake ERC20 tokens for a set duration of time and earn rewards in return.This contract uses OpenZeppelin's AccessControlUpgradeable, EnumerableSetUpgradeable, IERC20Upgradeable and OwnableUpgradeable contracts.",
    "events": {
      "Initialized(uint8)": {
        "details": "Triggered when the contract has been initialized or reinitialized."
      },
      "RewardPaid(address,uint256)": {
        "params": {
          "amount": "The reward amount.",
          "user": "The user address."
        }
      },
      "RoleAdminChanged(bytes32,bytes32,bytes32)": {
        "details": "Emitted when `newAdminRole` is set as ``role``'s admin role, replacing `previousAdminRole` `DEFAULT_ADMIN_ROLE` is the starting admin for all roles, despite {RoleAdminChanged} not being emitted signaling this. _Available since v3.1._"
      },
      "RoleGranted(bytes32,address,address)": {
        "details": "Emitted when `account` is granted `role`. `sender` is the account that originated the contract call, an admin role bearer except when using {AccessControl-_setupRole}."
      },
      "RoleRevoked(bytes32,address,address)": {
        "details": "Emitted when `account` is revoked `role`. `sender` is the account that originated the contract call:   - if using `revokeRole`, it is the admin role bearer   - if using `renounceRole`, it is the role bearer (i.e. `account`)"
      },
      "Staked(address,address,uint256)": {
        "params": {
          "amount": "The amount.",
          "token": "token's contract address.",
          "user": "The user address."
        }
      },
      "UpdateReward(address)": {
        "params": {
          "user": "The user address."
        }
      },
      "Withdrawn(address,address,uint256)": {
        "params": {
          "amount": "The amount.",
          "token": "token's contract address.",
          "user": "The user address."
        }
      }
    },
    "kind": "dev",
    "methods": {
      "addWhitelistToken(address)": {
        "details": "This function used to add white token into set by contract owner",
        "params": {
          "_token": "address of token."
        }
      },
      "balanceOf(address,address)": {
        "details": "This function retrieves the current balance of token that user stake.",
        "params": {
          "token": "address of token",
          "user": "address of user"
        },
        "returns": {
          "_0": "The current value of balance of user."
        }
      },
      "blockNumberAtEndTimestamp()": {
        "details": "this function used to update block number at the end of timestamp"
      },
      "getRoleAdmin(bytes32)": {
        "details": "Returns the admin role that controls `role`. See {grantRole} and {revokeRole}. To change a role's admin, use {_setRoleAdmin}."
      },
      "grantRole(bytes32,address)": {
        "details": "Grants `role` to `account`. If `account` had not been already granted `role`, emits a {RoleGranted} event. Requirements: - the caller must have ``role``'s admin role. May emit a {RoleGranted} event."
      },
      "hasRole(bytes32,address)": {
        "details": "Returns `true` if `account` has been granted `role`."
      },
      "initialize(uint256,uint256,address)": {
        "details": "Initializes the contract.",
        "params": {
          "_endTimestamp": "The timestamp at which the staking period ends.",
          "_startTimestamp": "The timestamp at which the staking period begins.",
          "rewardToken": "The address of the reward token contract."
        }
      },
      "isWhitelistedToken(address)": {
        "details": "This function check given token is whitelisted or not",
        "params": {
          "token": "address of token that to be checked"
        },
        "returns": {
          "_0": "bool value either true or false, if whitelisted return true, otherwise false"
        }
      },
      "owner()": {
        "details": "Returns the address of the current owner."
      },
      "removeWhitelistToken(address)": {
        "details": "this function used to remove whitelisted token from set by contract owner",
        "params": {
          "_token": "address of token that are being to be removed"
        }
      },
      "renounceOwnership()": {
        "details": "Leaves the contract without owner. It will not be possible to call `onlyOwner` functions anymore. Can only be called by the current owner. NOTE: Renouncing ownership will leave the contract without an owner, thereby removing any functionality that is only available to the owner."
      },
      "renounceRole(bytes32,address)": {
        "details": "Revokes `role` from the calling account. Roles are often managed via {grantRole} and {revokeRole}: this function's purpose is to provide a mechanism for accounts to lose their privileges if they are compromised (such as when a trusted device is misplaced). If the calling account had been revoked `role`, emits a {RoleRevoked} event. Requirements: - the caller must be `account`. May emit a {RoleRevoked} event."
      },
      "revokeRole(bytes32,address)": {
        "details": "Revokes `role` from `account`. If `account` had been granted `role`, emits a {RoleRevoked} event. Requirements: - the caller must have ``role``'s admin role. May emit a {RoleRevoked} event."
      },
      "stake(address,uint256)": {
        "details": "This function used for staking token of amount value",
        "params": {
          "amount": "the amount of token ",
          "token": "address of token that being to be staked"
        }
      },
      "supportsInterface(bytes4)": {
        "details": "See {IERC165-supportsInterface}."
      },
      "transferOwnership(address)": {
        "details": "Transfers ownership of the contract to a new account (`newOwner`). Can only be called by the current owner."
      },
      "withdraw(address,uint256)": {
        "details": "this function withdraw given amount of token from staking pool",
        "params": {
          "amount": "amount of token ",
          "token": "address of token that user want to withdraw"
        }
      }
    },
    "title": "Staking Contract",
    "version": 1
  },
  "userdoc": {
    "events": {
      "RewardPaid(address,uint256)": {
        "notice": "This event is emitted when user's reward paid to corresponding user."
      },
      "Staked(address,address,uint256)": {
        "notice": "This event is emitted when user staked amount in staking ."
      },
      "UpdateReward(address)": {
        "notice": "This event is emitted when user reward updated."
      },
      "Withdrawn(address,address,uint256)": {
        "notice": "This event is emitted when user withdrawal amount from staking."
      }
    },
    "kind": "user",
    "methods": {},
    "notice": "Staking can only be done during the specified time duration and with whitelisted tokens.",
    "version": 1
  },
  "storageLayout": {
    "storage": [
      {
        "astId": 547,
        "contract": "contracts/Staking.sol:StakingContract",
        "label": "_initialized",
        "offset": 0,
        "slot": "0",
        "type": "t_uint8"
      },
      {
        "astId": 550,
        "contract": "contracts/Staking.sol:StakingContract",
        "label": "_initializing",
        "offset": 1,
        "slot": "0",
        "type": "t_bool"
      },
      {
        "astId": 1112,
        "contract": "contracts/Staking.sol:StakingContract",
        "label": "__gap",
        "offset": 0,
        "slot": "1",
        "type": "t_array(t_uint256)50_storage"
      },
      {
        "astId": 1331,
        "contract": "contracts/Staking.sol:StakingContract",
        "label": "__gap",
        "offset": 0,
        "slot": "51",
        "type": "t_array(t_uint256)50_storage"
      },
      {
        "astId": 39,
        "contract": "contracts/Staking.sol:StakingContract",
        "label": "_roles",
        "offset": 0,
        "slot": "101",
        "type": "t_mapping(t_bytes32,t_struct(RoleData)34_storage)"
      },
      {
        "astId": 334,
        "contract": "contracts/Staking.sol:StakingContract",
        "label": "__gap",
        "offset": 0,
        "slot": "102",
        "type": "t_array(t_uint256)49_storage"
      },
      {
        "astId": 419,
        "contract": "contracts/Staking.sol:StakingContract",
        "label": "_owner",
        "offset": 0,
        "slot": "151",
        "type": "t_address"
      },
      {
        "astId": 539,
        "contract": "contracts/Staking.sol:StakingContract",
        "label": "__gap",
        "offset": 0,
        "slot": "152",
        "type": "t_array(t_uint256)49_storage"
      },
      {
        "astId": 3693,
        "contract": "contracts/Staking.sol:StakingContract",
        "label": "startTimestamp",
        "offset": 0,
        "slot": "201",
        "type": "t_uint256"
      },
      {
        "astId": 3695,
        "contract": "contracts/Staking.sol:StakingContract",
        "label": "endTimestamp",
        "offset": 0,
        "slot": "202",
        "type": "t_uint256"
      },
      {
        "astId": 3697,
        "contract": "contracts/Staking.sol:StakingContract",
        "label": "blockAtEndTimestamp",
        "offset": 0,
        "slot": "203",
        "type": "t_uint256"
      },
      {
        "astId": 3699,
        "contract": "contracts/Staking.sol:StakingContract",
        "label": "rewardTokenContract",
        "offset": 0,
        "slot": "204",
        "type": "t_address"
      },
      {
        "astId": 3701,
        "contract": "contracts/Staking.sol:StakingContract",
        "label": "flag",
        "offset": 20,
        "slot": "204",
        "type": "t_bool"
      },
      {
        "astId": 3704,
        "contract": "contracts/Staking.sol:StakingContract",
        "label": "_whitelistedToken",
        "offset": 0,
        "slot": "205",
        "type": "t_struct(AddressSet)2535_storage"
      },
      {
        "astId": 3707,
        "contract": "contracts/Staking.sol:StakingContract",
        "label": "_whitelistedUsers",
        "offset": 0,
        "slot": "207",
        "type": "t_struct(AddressSet)2535_storage"
      },
      {
        "astId": 3713,
        "contract": "contracts/Staking.sol:StakingContract",
        "label": "_balances",
        "offset": 0,
        "slot": "209",
        "type": "t_mapping(t_address,t_mapping(t_address,t_uint256))"
      },
      {
        "astId": 3719,
        "contract": "contracts/Staking.sol:StakingContract",
        "label": "_lastUpdateBlock",
        "offset": 0,
        "slot": "210",
        "type": "t_mapping(t_address,t_mapping(t_address,t_uint256))"
      },
      {
        "astId": 3723,
        "contract": "contracts/Staking.sol:StakingContract",
        "label": "_rewards",
        "offset": 0,
        "slot": "211",
        "type": "t_mapping(t_address,t_uint256)"
      }
    ],
    "types": {
      "t_address": {
        "encoding": "inplace",
        "label": "address",
        "numberOfBytes": "20"
      },
      "t_array(t_bytes32)dyn_storage": {
        "base": "t_bytes32",
        "encoding": "dynamic_array",
        "label": "bytes32[]",
        "numberOfBytes": "32"
      },
      "t_array(t_uint256)49_storage": {
        "base": "t_uint256",
        "encoding": "inplace",
        "label": "uint256[49]",
        "numberOfBytes": "1568"
      },
      "t_array(t_uint256)50_storage": {
        "base": "t_uint256",
        "encoding": "inplace",
        "label": "uint256[50]",
        "numberOfBytes": "1600"
      },
      "t_bool": {
        "encoding": "inplace",
        "label": "bool",
        "numberOfBytes": "1"
      },
      "t_bytes32": {
        "encoding": "inplace",
        "label": "bytes32",
        "numberOfBytes": "32"
      },
      "t_mapping(t_address,t_bool)": {
        "encoding": "mapping",
        "key": "t_address",
        "label": "mapping(address => bool)",
        "numberOfBytes": "32",
        "value": "t_bool"
      },
      "t_mapping(t_address,t_mapping(t_address,t_uint256))": {
        "encoding": "mapping",
        "key": "t_address",
        "label": "mapping(address => mapping(address => uint256))",
        "numberOfBytes": "32",
        "value": "t_mapping(t_address,t_uint256)"
      },
      "t_mapping(t_address,t_uint256)": {
        "encoding": "mapping",
        "key": "t_address",
        "label": "mapping(address => uint256)",
        "numberOfBytes": "32",
        "value": "t_uint256"
      },
      "t_mapping(t_bytes32,t_struct(RoleData)34_storage)": {
        "encoding": "mapping",
        "key": "t_bytes32",
        "label": "mapping(bytes32 => struct AccessControlUpgradeable.RoleData)",
        "numberOfBytes": "32",
        "value": "t_struct(RoleData)34_storage"
      },
      "t_mapping(t_bytes32,t_uint256)": {
        "encoding": "mapping",
        "key": "t_bytes32",
        "label": "mapping(bytes32 => uint256)",
        "numberOfBytes": "32",
        "value": "t_uint256"
      },
      "t_struct(AddressSet)2535_storage": {
        "encoding": "inplace",
        "label": "struct EnumerableSetUpgradeable.AddressSet",
        "members": [
          {
            "astId": 2534,
            "contract": "contracts/Staking.sol:StakingContract",
            "label": "_inner",
            "offset": 0,
            "slot": "0",
            "type": "t_struct(Set)2220_storage"
          }
        ],
        "numberOfBytes": "64"
      },
      "t_struct(RoleData)34_storage": {
        "encoding": "inplace",
        "label": "struct AccessControlUpgradeable.RoleData",
        "members": [
          {
            "astId": 31,
            "contract": "contracts/Staking.sol:StakingContract",
            "label": "members",
            "offset": 0,
            "slot": "0",
            "type": "t_mapping(t_address,t_bool)"
          },
          {
            "astId": 33,
            "contract": "contracts/Staking.sol:StakingContract",
            "label": "adminRole",
            "offset": 0,
            "slot": "1",
            "type": "t_bytes32"
          }
        ],
        "numberOfBytes": "64"
      },
      "t_struct(Set)2220_storage": {
        "encoding": "inplace",
        "label": "struct EnumerableSetUpgradeable.Set",
        "members": [
          {
            "astId": 2215,
            "contract": "contracts/Staking.sol:StakingContract",
            "label": "_values",
            "offset": 0,
            "slot": "0",
            "type": "t_array(t_bytes32)dyn_storage"
          },
          {
            "astId": 2219,
            "contract": "contracts/Staking.sol:StakingContract",
            "label": "_indexes",
            "offset": 0,
            "slot": "1",
            "type": "t_mapping(t_bytes32,t_uint256)"
          }
        ],
        "numberOfBytes": "64"
      },
      "t_uint256": {
        "encoding": "inplace",
        "label": "uint256",
        "numberOfBytes": "32"
      },
      "t_uint8": {
        "encoding": "inplace",
        "label": "uint8",
        "numberOfBytes": "1"
      }
    }
  }
}