{
  "address": "0xCf7Ed3AccA5a467e9e704C703E8D87F634fB0Fc9",
  "abi": [
    {
      "anonymous": false,
      "inputs": [
        {
          "indexed": false,
          "internalType": "uint8",
          "name": "version",
          "type": "uint8"
        }
      ],
      "name": "Initialized",
      "type": "event"
    },
    {
      "anonymous": false,
      "inputs": [
        {
          "indexed": true,
          "internalType": "address",
          "name": "previousOwner",
          "type": "address"
        },
        {
          "indexed": true,
          "internalType": "address",
          "name": "newOwner",
          "type": "address"
        }
      ],
      "name": "OwnershipTransferred",
      "type": "event"
    },
    {
      "anonymous": false,
      "inputs": [
        {
          "indexed": true,
          "internalType": "address",
          "name": "user",
          "type": "address"
        },
        {
          "indexed": false,
          "internalType": "uint256",
          "name": "amount",
          "type": "uint256"
        }
      ],
      "name": "RewardPaid",
      "type": "event"
    },
    {
      "anonymous": false,
      "inputs": [
        {
          "indexed": true,
          "internalType": "bytes32",
          "name": "role",
          "type": "bytes32"
        },
        {
          "indexed": true,
          "internalType": "bytes32",
          "name": "previousAdminRole",
          "type": "bytes32"
        },
        {
          "indexed": true,
          "internalType": "bytes32",
          "name": "newAdminRole",
          "type": "bytes32"
        }
      ],
      "name": "RoleAdminChanged",
      "type": "event"
    },
    {
      "anonymous": false,
      "inputs": [
        {
          "indexed": true,
          "internalType": "bytes32",
          "name": "role",
          "type": "bytes32"
        },
        {
          "indexed": true,
          "internalType": "address",
          "name": "account",
          "type": "address"
        },
        {
          "indexed": true,
          "internalType": "address",
          "name": "sender",
          "type": "address"
        }
      ],
      "name": "RoleGranted",
      "type": "event"
    },
    {
      "anonymous": false,
      "inputs": [
        {
          "indexed": true,
          "internalType": "bytes32",
          "name": "role",
          "type": "bytes32"
        },
        {
          "indexed": true,
          "internalType": "address",
          "name": "account",
          "type": "address"
        },
        {
          "indexed": true,
          "internalType": "address",
          "name": "sender",
          "type": "address"
        }
      ],
      "name": "RoleRevoked",
      "type": "event"
    },
    {
      "anonymous": false,
      "inputs": [
        {
          "indexed": true,
          "internalType": "address",
          "name": "user",
          "type": "address"
        },
        {
          "indexed": true,
          "internalType": "address",
          "name": "token",
          "type": "address"
        },
        {
          "indexed": false,
          "internalType": "uint256",
          "name": "amount",
          "type": "uint256"
        }
      ],
      "name": "Staked",
      "type": "event"
    },
    {
      "anonymous": false,
      "inputs": [
        {
          "indexed": true,
          "internalType": "address",
          "name": "user",
          "type": "address"
        }
      ],
      "name": "UpdateReward",
      "type": "event"
    },
    {
      "anonymous": false,
      "inputs": [
        {
          "indexed": true,
          "internalType": "address",
          "name": "user",
          "type": "address"
        },
        {
          "indexed": true,
          "internalType": "address",
          "name": "token",
          "type": "address"
        },
        {
          "indexed": false,
          "internalType": "uint256",
          "name": "amount",
          "type": "uint256"
        }
      ],
      "name": "Withdrawn",
      "type": "event"
    },
    {
      "inputs": [],
      "name": "DEFAULT_ADMIN_ROLE",
      "outputs": [
        {
          "internalType": "bytes32",
          "name": "",
          "type": "bytes32"
        }
      ],
      "stateMutability": "view",
      "type": "function"
    },
    {
      "inputs": [],
      "name": "REWARD",
      "outputs": [
        {
          "internalType": "uint256",
          "name": "",
          "type": "uint256"
        }
      ],
      "stateMutability": "view",
      "type": "function"
    },
    {
      "inputs": [
        {
          "internalType": "address",
          "name": "_token",
          "type": "address"
        }
      ],
      "name": "addWhitelistToken",
      "outputs": [],
      "stateMutability": "nonpayable",
      "type": "function"
    },
    {
      "inputs": [
        {
          "internalType": "address",
          "name": "user",
          "type": "address"
        },
        {
          "internalType": "address",
          "name": "token",
          "type": "address"
        }
      ],
      "name": "balanceOf",
      "outputs": [
        {
          "internalType": "uint256",
          "name": "",
          "type": "uint256"
        }
      ],
      "stateMutability": "view",
      "type": "function"
    },
    {
      "inputs": [],
      "name": "blockAtEndTimestamp",
      "outputs": [
        {
          "internalType": "uint256",
          "name": "",
          "type": "uint256"
        }
      ],
      "stateMutability": "view",
      "type": "function"
    },
    {
      "inputs": [],
      "name": "blockNumberAtEndTimestamp",
      "outputs": [],
      "stateMutability": "nonpayable",
      "type": "function"
    },
    {
      "inputs": [],
      "name": "endTimestamp",
      "outputs": [
        {
          "internalType": "uint256",
          "name": "",
          "type": "uint256"
        }
      ],
      "stateMutability": "view",
      "type": "function"
    },
    {
      "inputs": [],
      "name": "getReward",
      "outputs": [],
      "stateMutability": "nonpayable",
      "type": "function"
    },
    {
      "inputs": [
        {
          "internalType": "bytes32",
          "name": "role",
          "type": "bytes32"
        }
      ],
      "name": "getRoleAdmin",
      "outputs": [
        {
          "internalType": "bytes32",
          "name": "",
          "type": "bytes32"
        }
      ],
      "stateMutability": "view",
      "type": "function"
    },
    {
      "inputs": [
        {
          "internalType": "bytes32",
          "name": "role",
          "type": "bytes32"
        },
        {
          "internalType": "address",
          "name": "account",
          "type": "address"
        }
      ],
      "name": "grantRole",
      "outputs": [],
      "stateMutability": "nonpayable",
      "type": "function"
    },
    {
      "inputs": [
        {
          "internalType": "bytes32",
          "name": "role",
          "type": "bytes32"
        },
        {
          "internalType": "address",
          "name": "account",
          "type": "address"
        }
      ],
      "name": "hasRole",
      "outputs": [
        {
          "internalType": "bool",
          "name": "",
          "type": "bool"
        }
      ],
      "stateMutability": "view",
      "type": "function"
    },
    {
      "inputs": [
        {
          "internalType": "uint256",
          "name": "_startTimestamp",
          "type": "uint256"
        },
        {
          "internalType": "uint256",
          "name": "_endTimestamp",
          "type": "uint256"
        },
        {
          "internalType": "address",
          "name": "rewardToken",
          "type": "address"
        }
      ],
      "name": "initialize",
      "outputs": [],
      "stateMutability": "nonpayable",
      "type": "function"
    },
    {
      "inputs": [
        {
          "internalType": "address",
          "name": "token",
          "type": "address"
        }
      ],
      "name": "isWhitelistedToken",
      "outputs": [
        {
          "internalType": "bool",
          "name": "",
          "type": "bool"
        }
      ],
      "stateMutability": "view",
      "type": "function"
    },
    {
      "inputs": [],
      "name": "owner",
      "outputs": [
        {
          "internalType": "address",
          "name": "",
          "type": "address"
        }
      ],
      "stateMutability": "view",
      "type": "function"
    },
    {
      "inputs": [
        {
          "internalType": "address",
          "name": "_token",
          "type": "address"
        }
      ],
      "name": "removeWhitelistToken",
      "outputs": [],
      "stateMutability": "nonpayable",
      "type": "function"
    },
    {
      "inputs": [],
      "name": "renounceOwnership",
      "outputs": [],
      "stateMutability": "nonpayable",
      "type": "function"
    },
    {
      "inputs": [
        {
          "internalType": "bytes32",
          "name": "role",
          "type": "bytes32"
        },
        {
          "internalType": "address",
          "name": "account",
          "type": "address"
        }
      ],
      "name": "renounceRole",
      "outputs": [],
      "stateMutability": "nonpayable",
      "type": "function"
    },
    {
      "inputs": [
        {
          "internalType": "bytes32",
          "name": "role",
          "type": "bytes32"
        },
        {
          "internalType": "address",
          "name": "account",
          "type": "address"
        }
      ],
      "name": "revokeRole",
      "outputs": [],
      "stateMutability": "nonpayable",
      "type": "function"
    },
    {
      "inputs": [],
      "name": "rewardTokenContract",
      "outputs": [
        {
          "internalType": "address",
          "name": "",
          "type": "address"
        }
      ],
      "stateMutability": "view",
      "type": "function"
    },
    {
      "inputs": [
        {
          "internalType": "address",
          "name": "token",
          "type": "address"
        },
        {
          "internalType": "uint256",
          "name": "amount",
          "type": "uint256"
        }
      ],
      "name": "stake",
      "outputs": [],
      "stateMutability": "nonpayable",
      "type": "function"
    },
    {
      "inputs": [],
      "name": "startTimestamp",
      "outputs": [
        {
          "internalType": "uint256",
          "name": "",
          "type": "uint256"
        }
      ],
      "stateMutability": "view",
      "type": "function"
    },
    {
      "inputs": [
        {
          "internalType": "bytes4",
          "name": "interfaceId",
          "type": "bytes4"
        }
      ],
      "name": "supportsInterface",
      "outputs": [
        {
          "internalType": "bool",
          "name": "",
          "type": "bool"
        }
      ],
      "stateMutability": "view",
      "type": "function"
    },
    {
      "inputs": [
        {
          "internalType": "address",
          "name": "newOwner",
          "type": "address"
        }
      ],
      "name": "transferOwnership",
      "outputs": [],
      "stateMutability": "nonpayable",
      "type": "function"
    },
    {
      "inputs": [
        {
          "internalType": "address",
          "name": "token",
          "type": "address"
        },
        {
          "internalType": "uint256",
          "name": "amount",
          "type": "uint256"
        }
      ],
      "name": "withdraw",
      "outputs": [],
      "stateMutability": "nonpayable",
      "type": "function"
    }
  ],
  "transactionHash": "0xad9024bd07336475081d2ca981b893ae75c9582db5f0a4dfc3882253c844794c",
  "args": [],
  "numDeployments": 1,
  "solcInputHash": "1e8a0767bea4ac85cf6d7cb1d27dc025",
  "bytecode": "0x608060405234801561001057600080fd5b50612c96806100206000396000f3fe608060405234801561001057600080fd5b50600436106101585760003560e01c8063a6ab36f2116100c3578063d547741f1161007c578063d547741f1461037b578063e6fd48bc14610397578063e9ee9107146103b5578063f2fde38b146103d1578063f3fef3a3146103ed578063f7888aec1461040957610158565b8063a6ab36f2146102b9578063a85adeab146102d5578063ab273e81146102f3578063ab37f48614610311578063adc9772e14610341578063cab34c081461035d57610158565b80638149b461116101155780638149b4611461020957806385774d04146102275780638da5cb5b146102315780639168083c1461024f57806391d148541461026b578063a217fddf1461029b57610158565b806301ffc9a71461015d578063248a9ca31461018d5780632f2ff15d146101bd57806336568abe146101d95780633d18b912146101f5578063715018a6146101ff575b600080fd5b61017760048036038101906101729190611dcd565b610439565b6040516101849190611e15565b60405180910390f35b6101a760048036038101906101a29190611e66565b6104b3565b6040516101b49190611ea2565b60405180910390f35b6101d760048036038101906101d29190611f1b565b6104d3565b005b6101f360048036038101906101ee9190611f1b565b6104f4565b005b6101fd610577565b005b61020761073a565b005b61021161074e565b60405161021e9190611f74565b60405180910390f35b61022f610754565b005b6102396107aa565b6040516102469190611f9e565b60405180910390f35b61026960048036038101906102649190611fb9565b6107d4565b005b61028560048036038101906102809190611f1b565b6107fa565b6040516102929190611e15565b60405180910390f35b6102a3610865565b6040516102b09190611ea2565b60405180910390f35b6102d360048036038101906102ce9190612012565b61086c565b005b6102dd610aba565b6040516102ea9190611f74565b60405180910390f35b6102fb610ac0565b6040516103089190611f9e565b60405180910390f35b61032b60048036038101906103269190611fb9565b610ae6565b6040516103389190611e15565b60405180910390f35b61035b60048036038101906103569190612065565b610b03565b005b610365610e30565b6040516103729190611f74565b60405180910390f35b61039560048036038101906103909190611f1b565b610e35565b005b61039f610e56565b6040516103ac9190611f74565b60405180910390f35b6103cf60048036038101906103ca9190611fb9565b610e5c565b005b6103eb60048036038101906103e69190611fb9565b610e82565b005b61040760048036038101906104029190612065565b610f05565b005b610423600480360381019061041e91906120a5565b6111a0565b6040516104309190611f74565b60405180910390f35b60007f7965db0b000000000000000000000000000000000000000000000000000000007bffffffffffffffffffffffffffffffffffffffffffffffffffffffff1916827bffffffffffffffffffffffffffffffffffffffffffffffffffffffff191614806104ac57506104ab82611227565b5b9050919050565b600060656000838152602001908152602001600020600101549050919050565b6104dc826104b3565b6104e581611291565b6104ef83836112a5565b505050565b6104fc611386565b73ffffffffffffffffffffffffffffffffffffffff168173ffffffffffffffffffffffffffffffffffffffff1614610569576040517f08c379a000000000000000000000000000000000000000000000000000000000815260040161056090612168565b60405180910390fd5b610573828261138e565b5050565b600060d160003373ffffffffffffffffffffffffffffffffffffffff1673ffffffffffffffffffffffffffffffffffffffff168152602001908152602001600020549050600081111561073757600060d160003373ffffffffffffffffffffffffffffffffffffffff1673ffffffffffffffffffffffffffffffffffffffff168152602001908152602001600020819055503373ffffffffffffffffffffffffffffffffffffffff167fe2403640ba68fed3a2f88b7557551d1993f84b99bb10ff833f0cf8db0c5e04868260405161064f9190611f74565b60405180910390a260cc60009054906101000a900473ffffffffffffffffffffffffffffffffffffffff1673ffffffffffffffffffffffffffffffffffffffff1663a9059cbb33836040518363ffffffff1660e01b81526004016106b4929190612188565b6020604051808303816000875af11580156106d3573d6000803e3d6000fd5b505050506040513d601f19601f820116820180604052508101906106f791906121dd565b610736576040517f08c379a000000000000000000000000000000000000000000000000000000000815260040161072d90612256565b60405180910390fd5b5b50565b610742611470565b61074c60006114ee565b565b60cb5481565b6000801b61076181611291565b60cc60149054906101000a900460ff1615801561077f575060ca5442115b156107a7574360cb81905550600160cc60146101000a81548160ff0219169083151502179055505b50565b6000609760009054906101000a900473ffffffffffffffffffffffffffffffffffffffff16905090565b6000801b6107e181611291565b6107f58260cd6115b490919063ffffffff16565b505050565b60006065600084815260200190815260200160002060000160008373ffffffffffffffffffffffffffffffffffffffff1673ffffffffffffffffffffffffffffffffffffffff16815260200190815260200160002060009054906101000a900460ff16905092915050565b6000801b81565b60008060019054906101000a900460ff1615905080801561089d5750600160008054906101000a900460ff1660ff16105b806108ca57506108ac306115e4565b1580156108c95750600160008054906101000a900460ff1660ff16145b5b610909576040517f08c379a0000000000000000000000000000000000000000000000000000000008152600401610900906122e8565b60405180910390fd5b60016000806101000a81548160ff021916908360ff1602179055508015610946576001600060016101000a81548160ff0219169083151502179055505b838311610988576040517f08c379a000000000000000000000000000000000000000000000000000000000815260040161097f9061237a565b60405180910390fd5b600073ffffffffffffffffffffffffffffffffffffffff168273ffffffffffffffffffffffffffffffffffffffff16036109f7576040517f08c379a00000000000000000000000000000000000000000000000000000000081526004016109ee906123e6565b60405180910390fd5b6109ff611607565b610a0c6000801b33611658565b8360c9819055508260ca819055508160cc60006101000a81548173ffffffffffffffffffffffffffffffffffffffff021916908373ffffffffffffffffffffffffffffffffffffffff1602179055508015610ab45760008060016101000a81548160ff0219169083151502179055507f7f26b83ff96e1f2b6a682f133852f6798a09c465da95921460cefb38474024986001604051610aab9190612458565b60405180910390a15b50505050565b60ca5481565b60cc60009054906101000a900473ffffffffffffffffffffffffffffffffffffffff1681565b6000610afc8260cd61166690919063ffffffff16565b9050919050565b60c9544210158015610b17575060ca544211155b610b56576040517f08c379a0000000000000000000000000000000000000000000000000000000008152600401610b4d906124bf565b60405180910390fd5b81610b6b8160cd61166690919063ffffffff16565b610baa576040517f08c379a0000000000000000000000000000000000000000000000000000000008152600401610ba19061252b565b60405180910390fd5b60008211610bed576040517f08c379a0000000000000000000000000000000000000000000000000000000008152600401610be490612597565b60405180910390fd5b60008373ffffffffffffffffffffffffffffffffffffffff166323b872dd3330866040518463ffffffff1660e01b8152600401610c2c939291906125b7565b6020604051808303816000875af1158015610c4b573d6000803e3d6000fd5b505050506040513d601f19601f82011682018060405250810190610c6f91906121dd565b905080610cb1576040517f08c379a0000000000000000000000000000000000000000000000000000000008152600401610ca89061263a565b60405180910390fd5b8260cf60003373ffffffffffffffffffffffffffffffffffffffff1673ffffffffffffffffffffffffffffffffffffffff16815260200190815260200160002060008673ffffffffffffffffffffffffffffffffffffffff1673ffffffffffffffffffffffffffffffffffffffff1681526020019081526020016000206000828254610d3d9190612689565b925050819055504360d060003373ffffffffffffffffffffffffffffffffffffffff1673ffffffffffffffffffffffffffffffffffffffff16815260200190815260200160002060008673ffffffffffffffffffffffffffffffffffffffff1673ffffffffffffffffffffffffffffffffffffffff168152602001908152602001600020819055508373ffffffffffffffffffffffffffffffffffffffff163373ffffffffffffffffffffffffffffffffffffffff167f5dac0c1b1112564a045ba943c9d50270893e8e826c49be8e7073adc713ab7bd785604051610e229190611f74565b60405180910390a350505050565b600181565b610e3e826104b3565b610e4781611291565b610e51838361138e565b505050565b60c95481565b6000801b610e6981611291565b610e7d8260cd61169690919063ffffffff16565b505050565b610e8a611470565b600073ffffffffffffffffffffffffffffffffffffffff168173ffffffffffffffffffffffffffffffffffffffff1603610ef9576040517f08c379a0000000000000000000000000000000000000000000000000000000008152600401610ef09061272f565b60405180910390fd5b610f02816114ee565b50565b81610f1a8160cd61166690919063ffffffff16565b610f59576040517f08c379a0000000000000000000000000000000000000000000000000000000008152600401610f509061252b565b60405180910390fd5b8160cf60003373ffffffffffffffffffffffffffffffffffffffff1673ffffffffffffffffffffffffffffffffffffffff16815260200190815260200160002060008573ffffffffffffffffffffffffffffffffffffffff1673ffffffffffffffffffffffffffffffffffffffff168152602001908152602001600020541015611018576040517f08c379a000000000000000000000000000000000000000000000000000000000815260040161100f9061279b565b60405180910390fd5b61102233846116c6565b8273ffffffffffffffffffffffffffffffffffffffff166323b872dd3033856040518463ffffffff1660e01b815260040161105f939291906125b7565b6020604051808303816000875af115801561107e573d6000803e3d6000fd5b505050506040513d601f19601f820116820180604052508101906110a291906121dd565b508160cf60003373ffffffffffffffffffffffffffffffffffffffff1673ffffffffffffffffffffffffffffffffffffffff16815260200190815260200160002060008573ffffffffffffffffffffffffffffffffffffffff1673ffffffffffffffffffffffffffffffffffffffff168152602001908152602001600020600082825461112f91906127bb565b925050819055508273ffffffffffffffffffffffffffffffffffffffff163373ffffffffffffffffffffffffffffffffffffffff167fd1c19fbcd4551a5edfb66d43d2e337c04837afda3482b42bdf569a8fccdae5fb846040516111939190611f74565b60405180910390a3505050565b600060cf60008473ffffffffffffffffffffffffffffffffffffffff1673ffffffffffffffffffffffffffffffffffffffff16815260200190815260200160002060008373ffffffffffffffffffffffffffffffffffffffff1673ffffffffffffffffffffffffffffffffffffffff16815260200190815260200160002054905092915050565b60007f01ffc9a7000000000000000000000000000000000000000000000000000000007bffffffffffffffffffffffffffffffffffffffffffffffffffffffff1916827bffffffffffffffffffffffffffffffffffffffffffffffffffffffff1916149050919050565b6112a28161129d611386565b6118db565b50565b6112af82826107fa565b6113825760016065600084815260200190815260200160002060000160008373ffffffffffffffffffffffffffffffffffffffff1673ffffffffffffffffffffffffffffffffffffffff16815260200190815260200160002060006101000a81548160ff021916908315150217905550611327611386565b73ffffffffffffffffffffffffffffffffffffffff168173ffffffffffffffffffffffffffffffffffffffff16837f2f8788117e7eff1d82e926ec794901d17c78024a50270940304540a733656f0d60405160405180910390a45b5050565b600033905090565b61139882826107fa565b1561146c5760006065600084815260200190815260200160002060000160008373ffffffffffffffffffffffffffffffffffffffff1673ffffffffffffffffffffffffffffffffffffffff16815260200190815260200160002060006101000a81548160ff021916908315150217905550611411611386565b73ffffffffffffffffffffffffffffffffffffffff168173ffffffffffffffffffffffffffffffffffffffff16837ff6391f5c32d9c69d2a47ea670b442974b53935d1edc7fd64eb21e047a839171b60405160405180910390a45b5050565b611478611386565b73ffffffffffffffffffffffffffffffffffffffff166114966107aa565b73ffffffffffffffffffffffffffffffffffffffff16146114ec576040517f08c379a00000000000000000000000000000000000000000000000000000000081526004016114e39061283b565b60405180910390fd5b565b6000609760009054906101000a900473ffffffffffffffffffffffffffffffffffffffff16905081609760006101000a81548173ffffffffffffffffffffffffffffffffffffffff021916908373ffffffffffffffffffffffffffffffffffffffff1602179055508173ffffffffffffffffffffffffffffffffffffffff168173ffffffffffffffffffffffffffffffffffffffff167f8be0079c531659141344cd1fd0a4f28419497f9722a3daafe3b4186f6b6457e060405160405180910390a35050565b60006115dc836000018373ffffffffffffffffffffffffffffffffffffffff1660001b611960565b905092915050565b6000808273ffffffffffffffffffffffffffffffffffffffff163b119050919050565b600060019054906101000a900460ff16611656576040517f08c379a000000000000000000000000000000000000000000000000000000000815260040161164d906128cd565b60405180910390fd5b565b61166282826112a5565b5050565b600061168e836000018373ffffffffffffffffffffffffffffffffffffffff1660001b6119d0565b905092915050565b60006116be836000018373ffffffffffffffffffffffffffffffffffffffff1660001b6119f3565b905092915050565b600060ca544211156116ff576001600560cb54436116e491906127bb565b6116ee919061291c565b6116f8919061294d565b90506117a2565b6001600560d060008673ffffffffffffffffffffffffffffffffffffffff1673ffffffffffffffffffffffffffffffffffffffff16815260200190815260200160002060008573ffffffffffffffffffffffffffffffffffffffff1673ffffffffffffffffffffffffffffffffffffffff168152602001908152602001600020544361178b91906127bb565b611795919061291c565b61179f919061294d565b90505b8060d160008573ffffffffffffffffffffffffffffffffffffffff1673ffffffffffffffffffffffffffffffffffffffff16815260200190815260200160002060008282546117f19190612689565b9250508190555060c954421015801561180c575060ca544211155b15611893574360d060008573ffffffffffffffffffffffffffffffffffffffff1673ffffffffffffffffffffffffffffffffffffffff16815260200190815260200160002060008473ffffffffffffffffffffffffffffffffffffffff1673ffffffffffffffffffffffffffffffffffffffff168152602001908152602001600020819055505b8273ffffffffffffffffffffffffffffffffffffffff167f2855e8f67272fdbc2c16aa3bc3934ab2a0c92fb550b288f31132b6e9c60ccb5f60405160405180910390a2505050565b6118e582826107fa565b61195c576118f281611b07565b6119008360001c6020611b34565b604051602001611911929190612a98565b6040516020818303038152906040526040517f08c379a00000000000000000000000000000000000000000000000000000000081526004016119539190612b1c565b60405180910390fd5b5050565b600061196c83836119d0565b6119c55782600001829080600181540180825580915050600190039060005260206000200160009091909190915055826000018054905083600101600084815260200190815260200160002081905550600190506119ca565b600090505b92915050565b600080836001016000848152602001908152602001600020541415905092915050565b60008083600101600084815260200190815260200160002054905060008114611afb576000600182611a2591906127bb565b9050600060018660000180549050611a3d91906127bb565b9050818114611aac576000866000018281548110611a5e57611a5d612b3e565b5b9060005260206000200154905080876000018481548110611a8257611a81612b3e565b5b90600052602060002001819055508387600101600083815260200190815260200160002081905550505b85600001805480611ac057611abf612b6d565b5b600190038181906000526020600020016000905590558560010160008681526020019081526020016000206000905560019350505050611b01565b60009150505b92915050565b6060611b2d8273ffffffffffffffffffffffffffffffffffffffff16601460ff16611b34565b9050919050565b606060006002836002611b47919061294d565b611b519190612689565b67ffffffffffffffff811115611b6a57611b69612b9c565b5b6040519080825280601f01601f191660200182016040528015611b9c5781602001600182028036833780820191505090505b5090507f300000000000000000000000000000000000000000000000000000000000000081600081518110611bd457611bd3612b3e565b5b60200101907effffffffffffffffffffffffffffffffffffffffffffffffffffffffffffff1916908160001a9053507f780000000000000000000000000000000000000000000000000000000000000081600181518110611c3857611c37612b3e565b5b60200101907effffffffffffffffffffffffffffffffffffffffffffffffffffffffffffff1916908160001a90535060006001846002611c78919061294d565b611c829190612689565b90505b6001811115611d22577f3031323334353637383961626364656600000000000000000000000000000000600f861660108110611cc457611cc3612b3e565b5b1a60f81b828281518110611cdb57611cda612b3e565b5b60200101907effffffffffffffffffffffffffffffffffffffffffffffffffffffffffffff1916908160001a905350600485901c945080611d1b90612bcb565b9050611c85565b5060008414611d66576040517f08c379a0000000000000000000000000000000000000000000000000000000008152600401611d5d90612c40565b60405180910390fd5b8091505092915050565b600080fd5b60007fffffffff0000000000000000000000000000000000000000000000000000000082169050919050565b611daa81611d75565b8114611db557600080fd5b50565b600081359050611dc781611da1565b92915050565b600060208284031215611de357611de2611d70565b5b6000611df184828501611db8565b91505092915050565b60008115159050919050565b611e0f81611dfa565b82525050565b6000602082019050611e2a6000830184611e06565b92915050565b6000819050919050565b611e4381611e30565b8114611e4e57600080fd5b50565b600081359050611e6081611e3a565b92915050565b600060208284031215611e7c57611e7b611d70565b5b6000611e8a84828501611e51565b91505092915050565b611e9c81611e30565b82525050565b6000602082019050611eb76000830184611e93565b92915050565b600073ffffffffffffffffffffffffffffffffffffffff82169050919050565b6000611ee882611ebd565b9050919050565b611ef881611edd565b8114611f0357600080fd5b50565b600081359050611f1581611eef565b92915050565b60008060408385031215611f3257611f31611d70565b5b6000611f4085828601611e51565b9250506020611f5185828601611f06565b9150509250929050565b6000819050919050565b611f6e81611f5b565b82525050565b6000602082019050611f896000830184611f65565b92915050565b611f9881611edd565b82525050565b6000602082019050611fb36000830184611f8f565b92915050565b600060208284031215611fcf57611fce611d70565b5b6000611fdd84828501611f06565b91505092915050565b611fef81611f5b565b8114611ffa57600080fd5b50565b60008135905061200c81611fe6565b92915050565b60008060006060848603121561202b5761202a611d70565b5b600061203986828701611ffd565b935050602061204a86828701611ffd565b925050604061205b86828701611f06565b9150509250925092565b6000806040838503121561207c5761207b611d70565b5b600061208a85828601611f06565b925050602061209b85828601611ffd565b9150509250929050565b600080604083850312156120bc576120bb611d70565b5b60006120ca85828601611f06565b92505060206120db85828601611f06565b9150509250929050565b600082825260208201905092915050565b7f416363657373436f6e74726f6c3a2063616e206f6e6c792072656e6f756e636560008201527f20726f6c657320666f722073656c660000000000000000000000000000000000602082015250565b6000612152602f836120e5565b915061215d826120f6565b604082019050919050565b6000602082019050818103600083015261218181612145565b9050919050565b600060408201905061219d6000830185611f8f565b6121aa6020830184611f65565b9392505050565b6121ba81611dfa565b81146121c557600080fd5b50565b6000815190506121d7816121b1565b92915050565b6000602082840312156121f3576121f2611d70565b5b6000612201848285016121c8565b91505092915050565b7f4661696c656420746f207472616e736665722072657761726420746f6b656e73600082015250565b60006122406020836120e5565b915061224b8261220a565b602082019050919050565b6000602082019050818103600083015261226f81612233565b9050919050565b7f496e697469616c697a61626c653a20636f6e747261637420697320616c72656160008201527f647920696e697469616c697a6564000000000000000000000000000000000000602082015250565b60006122d2602e836120e5565b91506122dd82612276565b604082019050919050565b60006020820190508181036000830152612301816122c5565b9050919050565b7f656e6454696d657374616d70206d75737420626520677265617465722074686160008201527f6e20737461727454696d657374616d7000000000000000000000000000000000602082015250565b60006123646030836120e5565b915061236f82612308565b604082019050919050565b6000602082019050818103600083015261239381612357565b9050919050565b7f41646472657373206d757374206265206e6f6e207a65726f2061646472657373600082015250565b60006123d06020836120e5565b91506123db8261239a565b602082019050919050565b600060208201905081810360008301526123ff816123c3565b9050919050565b6000819050919050565b600060ff82169050919050565b6000819050919050565b600061244261243d61243884612406565b61241d565b612410565b9050919050565b61245281612427565b82525050565b600060208201905061246d6000830184612449565b92915050565b7f4475726174696f6e206f76657200000000000000000000000000000000000000600082015250565b60006124a9600d836120e5565b91506124b482612473565b602082019050919050565b600060208201905081810360008301526124d88161249c565b9050919050565b7f546f6b656e206973206e6f742077686974656c69737465640000000000000000600082015250565b60006125156018836120e5565b9150612520826124df565b602082019050919050565b6000602082019050818103600083015261254481612508565b9050919050565b7f416d6f756e74206d7573742062652067726561746572207468616e207a65726f600082015250565b60006125816020836120e5565b915061258c8261254b565b602082019050919050565b600060208201905081810360008301526125b081612574565b9050919050565b60006060820190506125cc6000830186611f8f565b6125d96020830185611f8f565b6125e66040830184611f65565b949350505050565b7f7374616b696e67207472616e73666572206661696c6564000000000000000000600082015250565b60006126246017836120e5565b915061262f826125ee565b602082019050919050565b6000602082019050818103600083015261265381612617565b9050919050565b7f4e487b7100000000000000000000000000000000000000000000000000000000600052601160045260246000fd5b600061269482611f5b565b915061269f83611f5b565b92508282019050808211156126b7576126b661265a565b5b92915050565b7f4f776e61626c653a206e6577206f776e657220697320746865207a65726f206160008201527f6464726573730000000000000000000000000000000000000000000000000000602082015250565b60006127196026836120e5565b9150612724826126bd565b604082019050919050565b600060208201905081810360008301526127488161270c565b9050919050565b7f496e73756666696369656e742062616c616e6365000000000000000000000000600082015250565b60006127856014836120e5565b91506127908261274f565b602082019050919050565b600060208201905081810360008301526127b481612778565b9050919050565b60006127c682611f5b565b91506127d183611f5b565b92508282039050818111156127e9576127e861265a565b5b92915050565b7f4f776e61626c653a2063616c6c6572206973206e6f7420746865206f776e6572600082015250565b60006128256020836120e5565b9150612830826127ef565b602082019050919050565b6000602082019050818103600083015261285481612818565b9050919050565b7f496e697469616c697a61626c653a20636f6e7472616374206973206e6f74206960008201527f6e697469616c697a696e67000000000000000000000000000000000000000000602082015250565b60006128b7602b836120e5565b91506128c28261285b565b604082019050919050565b600060208201905081810360008301526128e6816128aa565b9050919050565b7f4e487b7100000000000000000000000000000000000000000000000000000000600052601260045260246000fd5b600061292782611f5b565b915061293283611f5b565b925082612942576129416128ed565b5b828204905092915050565b600061295882611f5b565b915061296383611f5b565b925082820261297181611f5b565b915082820484148315176129885761298761265a565b5b5092915050565b600081905092915050565b7f416363657373436f6e74726f6c3a206163636f756e7420000000000000000000600082015250565b60006129d060178361298f565b91506129db8261299a565b601782019050919050565b600081519050919050565b60005b83811015612a0f5780820151818401526020810190506129f4565b60008484015250505050565b6000612a26826129e6565b612a30818561298f565b9350612a408185602086016129f1565b80840191505092915050565b7f206973206d697373696e6720726f6c6520000000000000000000000000000000600082015250565b6000612a8260118361298f565b9150612a8d82612a4c565b601182019050919050565b6000612aa3826129c3565b9150612aaf8285612a1b565b9150612aba82612a75565b9150612ac68284612a1b565b91508190509392505050565b6000601f19601f8301169050919050565b6000612aee826129e6565b612af881856120e5565b9350612b088185602086016129f1565b612b1181612ad2565b840191505092915050565b60006020820190508181036000830152612b368184612ae3565b905092915050565b7f4e487b7100000000000000000000000000000000000000000000000000000000600052603260045260246000fd5b7f4e487b7100000000000000000000000000000000000000000000000000000000600052603160045260246000fd5b7f4e487b7100000000000000000000000000000000000000000000000000000000600052604160045260246000fd5b6000612bd682611f5b565b915060008203612be957612be861265a565b5b600182039050919050565b7f537472696e67733a20686578206c656e67746820696e73756666696369656e74600082015250565b6000612c2a6020836120e5565b9150612c3582612bf4565b602082019050919050565b60006020820190508181036000830152612c5981612c1d565b905091905056fea264697066735822122001d8df19854bda7ed1375b24a5825695dd384e58ef97060a47b99bc5b2924e6864736f6c63430008120033",
  "devdoc": {
    "events": {
      "Initialized(uint8)": {
        "details": "Triggered when the contract has been initialized or reinitialized."
      },
      "RoleAdminChanged(bytes32,bytes32,bytes32)": {
        "details": "Emitted when `newAdminRole` is set as ``role``'s admin role, replacing `previousAdminRole` `DEFAULT_ADMIN_ROLE` is the starting admin for all roles, despite {RoleAdminChanged} not being emitted signaling this. _Available since v3.1._"
      },
      "RoleGranted(bytes32,address,address)": {
        "details": "Emitted when `account` is granted `role`. `sender` is the account that originated the contract call, an admin role bearer except when using {AccessControl-_setupRole}."
      },
      "RoleRevoked(bytes32,address,address)": {
        "details": "Emitted when `account` is revoked `role`. `sender` is the account that originated the contract call:   - if using `revokeRole`, it is the admin role bearer   - if using `renounceRole`, it is the role bearer (i.e. `account`)"
      }
    },
    "kind": "dev",
    "methods": {
      "getRoleAdmin(bytes32)": {
        "details": "Returns the admin role that controls `role`. See {grantRole} and {revokeRole}. To change a role's admin, use {_setRoleAdmin}."
      },
      "grantRole(bytes32,address)": {
        "details": "Grants `role` to `account`. If `account` had not been already granted `role`, emits a {RoleGranted} event. Requirements: - the caller must have ``role``'s admin role. May emit a {RoleGranted} event."
      },
      "hasRole(bytes32,address)": {
        "details": "Returns `true` if `account` has been granted `role`."
      },
      "owner()": {
        "details": "Returns the address of the current owner."
      },
      "renounceOwnership()": {
        "details": "Leaves the contract without owner. It will not be possible to call `onlyOwner` functions anymore. Can only be called by the current owner. NOTE: Renouncing ownership will leave the contract without an owner, thereby removing any functionality that is only available to the owner."
      },
      "renounceRole(bytes32,address)": {
        "details": "Revokes `role` from the calling account. Roles are often managed via {grantRole} and {revokeRole}: this function's purpose is to provide a mechanism for accounts to lose their privileges if they are compromised (such as when a trusted device is misplaced). If the calling account had been revoked `role`, emits a {RoleRevoked} event. Requirements: - the caller must be `account`. May emit a {RoleRevoked} event."
      },
      "revokeRole(bytes32,address)": {
        "details": "Revokes `role` from `account`. If `account` had been granted `role`, emits a {RoleRevoked} event. Requirements: - the caller must have ``role``'s admin role. May emit a {RoleRevoked} event."
      },
      "supportsInterface(bytes4)": {
        "details": "See {IERC165-supportsInterface}."
      },
      "transferOwnership(address)": {
        "details": "Transfers ownership of the contract to a new account (`newOwner`). Can only be called by the current owner."
      }
    },
    "version": 1
  },
  "userdoc": {
    "kind": "user",
    "methods": {},
    "version": 1
  },
  "storageLayout": {
    "storage": [
      {
        "astId": 547,
        "contract": "contracts/Staking.sol:StakingContract",
        "label": "_initialized",
        "offset": 0,
        "slot": "0",
        "type": "t_uint8"
      },
      {
        "astId": 550,
        "contract": "contracts/Staking.sol:StakingContract",
        "label": "_initializing",
        "offset": 1,
        "slot": "0",
        "type": "t_bool"
      },
      {
        "astId": 1749,
        "contract": "contracts/Staking.sol:StakingContract",
        "label": "__gap",
        "offset": 0,
        "slot": "1",
        "type": "t_array(t_uint256)50_storage"
      },
      {
        "astId": 1968,
        "contract": "contracts/Staking.sol:StakingContract",
        "label": "__gap",
        "offset": 0,
        "slot": "51",
        "type": "t_array(t_uint256)50_storage"
      },
      {
        "astId": 39,
        "contract": "contracts/Staking.sol:StakingContract",
        "label": "_roles",
        "offset": 0,
        "slot": "101",
        "type": "t_mapping(t_bytes32,t_struct(RoleData)34_storage)"
      },
      {
        "astId": 334,
        "contract": "contracts/Staking.sol:StakingContract",
        "label": "__gap",
        "offset": 0,
        "slot": "102",
        "type": "t_array(t_uint256)49_storage"
      },
      {
        "astId": 419,
        "contract": "contracts/Staking.sol:StakingContract",
        "label": "_owner",
        "offset": 0,
        "slot": "151",
        "type": "t_address"
      },
      {
        "astId": 539,
        "contract": "contracts/Staking.sol:StakingContract",
        "label": "__gap",
        "offset": 0,
        "slot": "152",
        "type": "t_array(t_uint256)49_storage"
      },
      {
        "astId": 3513,
        "contract": "contracts/Staking.sol:StakingContract",
        "label": "startTimestamp",
        "offset": 0,
        "slot": "201",
        "type": "t_uint256"
      },
      {
        "astId": 3515,
        "contract": "contracts/Staking.sol:StakingContract",
        "label": "endTimestamp",
        "offset": 0,
        "slot": "202",
        "type": "t_uint256"
      },
      {
        "astId": 3517,
        "contract": "contracts/Staking.sol:StakingContract",
        "label": "blockAtEndTimestamp",
        "offset": 0,
        "slot": "203",
        "type": "t_uint256"
      },
      {
        "astId": 3519,
        "contract": "contracts/Staking.sol:StakingContract",
        "label": "rewardTokenContract",
        "offset": 0,
        "slot": "204",
        "type": "t_address"
      },
      {
        "astId": 3521,
        "contract": "contracts/Staking.sol:StakingContract",
        "label": "flag",
        "offset": 20,
        "slot": "204",
        "type": "t_bool"
      },
      {
        "astId": 3524,
        "contract": "contracts/Staking.sol:StakingContract",
        "label": "_whitelistedToken",
        "offset": 0,
        "slot": "205",
        "type": "t_struct(AddressSet)3172_storage"
      },
      {
        "astId": 3530,
        "contract": "contracts/Staking.sol:StakingContract",
        "label": "_balances",
        "offset": 0,
        "slot": "207",
        "type": "t_mapping(t_address,t_mapping(t_address,t_uint256))"
      },
      {
        "astId": 3536,
        "contract": "contracts/Staking.sol:StakingContract",
        "label": "_lastUpdateBlock",
        "offset": 0,
        "slot": "208",
        "type": "t_mapping(t_address,t_mapping(t_address,t_uint256))"
      },
      {
        "astId": 3540,
        "contract": "contracts/Staking.sol:StakingContract",
        "label": "_rewards",
        "offset": 0,
        "slot": "209",
        "type": "t_mapping(t_address,t_uint256)"
      }
    ],
    "types": {
      "t_address": {
        "encoding": "inplace",
        "label": "address",
        "numberOfBytes": "20"
      },
      "t_array(t_bytes32)dyn_storage": {
        "base": "t_bytes32",
        "encoding": "dynamic_array",
        "label": "bytes32[]",
        "numberOfBytes": "32"
      },
      "t_array(t_uint256)49_storage": {
        "base": "t_uint256",
        "encoding": "inplace",
        "label": "uint256[49]",
        "numberOfBytes": "1568"
      },
      "t_array(t_uint256)50_storage": {
        "base": "t_uint256",
        "encoding": "inplace",
        "label": "uint256[50]",
        "numberOfBytes": "1600"
      },
      "t_bool": {
        "encoding": "inplace",
        "label": "bool",
        "numberOfBytes": "1"
      },
      "t_bytes32": {
        "encoding": "inplace",
        "label": "bytes32",
        "numberOfBytes": "32"
      },
      "t_mapping(t_address,t_bool)": {
        "encoding": "mapping",
        "key": "t_address",
        "label": "mapping(address => bool)",
        "numberOfBytes": "32",
        "value": "t_bool"
      },
      "t_mapping(t_address,t_mapping(t_address,t_uint256))": {
        "encoding": "mapping",
        "key": "t_address",
        "label": "mapping(address => mapping(address => uint256))",
        "numberOfBytes": "32",
        "value": "t_mapping(t_address,t_uint256)"
      },
      "t_mapping(t_address,t_uint256)": {
        "encoding": "mapping",
        "key": "t_address",
        "label": "mapping(address => uint256)",
        "numberOfBytes": "32",
        "value": "t_uint256"
      },
      "t_mapping(t_bytes32,t_struct(RoleData)34_storage)": {
        "encoding": "mapping",
        "key": "t_bytes32",
        "label": "mapping(bytes32 => struct AccessControlUpgradeable.RoleData)",
        "numberOfBytes": "32",
        "value": "t_struct(RoleData)34_storage"
      },
      "t_mapping(t_bytes32,t_uint256)": {
        "encoding": "mapping",
        "key": "t_bytes32",
        "label": "mapping(bytes32 => uint256)",
        "numberOfBytes": "32",
        "value": "t_uint256"
      },
      "t_struct(AddressSet)3172_storage": {
        "encoding": "inplace",
        "label": "struct EnumerableSetUpgradeable.AddressSet",
        "members": [
          {
            "astId": 3171,
            "contract": "contracts/Staking.sol:StakingContract",
            "label": "_inner",
            "offset": 0,
            "slot": "0",
            "type": "t_struct(Set)2857_storage"
          }
        ],
        "numberOfBytes": "64"
      },
      "t_struct(RoleData)34_storage": {
        "encoding": "inplace",
        "label": "struct AccessControlUpgradeable.RoleData",
        "members": [
          {
            "astId": 31,
            "contract": "contracts/Staking.sol:StakingContract",
            "label": "members",
            "offset": 0,
            "slot": "0",
            "type": "t_mapping(t_address,t_bool)"
          },
          {
            "astId": 33,
            "contract": "contracts/Staking.sol:StakingContract",
            "label": "adminRole",
            "offset": 0,
            "slot": "1",
            "type": "t_bytes32"
          }
        ],
        "numberOfBytes": "64"
      },
      "t_struct(Set)2857_storage": {
        "encoding": "inplace",
        "label": "struct EnumerableSetUpgradeable.Set",
        "members": [
          {
            "astId": 2852,
            "contract": "contracts/Staking.sol:StakingContract",
            "label": "_values",
            "offset": 0,
            "slot": "0",
            "type": "t_array(t_bytes32)dyn_storage"
          },
          {
            "astId": 2856,
            "contract": "contracts/Staking.sol:StakingContract",
            "label": "_indexes",
            "offset": 0,
            "slot": "1",
            "type": "t_mapping(t_bytes32,t_uint256)"
          }
        ],
        "numberOfBytes": "64"
      },
      "t_uint256": {
        "encoding": "inplace",
        "label": "uint256",
        "numberOfBytes": "32"
      },
      "t_uint8": {
        "encoding": "inplace",
        "label": "uint8",
        "numberOfBytes": "1"
      }
    }
  }
}